{
	"novemproject/Ecommerce.sol": {
		"Ecommerce": {
			"abi": [
				{
					"inputs": [
						{
							"internalType": "address",
							"name": "_owner",
							"type": "address"
						}
					],
					"stateMutability": "nonpayable",
					"type": "constructor"
				},
				{
					"anonymous": false,
					"inputs": [
						{
							"indexed": false,
							"internalType": "uint256",
							"name": "productId",
							"type": "uint256"
						},
						{
							"indexed": false,
							"internalType": "address",
							"name": "buyer",
							"type": "address"
						}
					],
					"name": "bought",
					"type": "event"
				},
				{
					"anonymous": false,
					"inputs": [
						{
							"indexed": false,
							"internalType": "uint256",
							"name": "productId",
							"type": "uint256"
						}
					],
					"name": "delivered",
					"type": "event"
				},
				{
					"anonymous": false,
					"inputs": [
						{
							"indexed": false,
							"internalType": "string",
							"name": "title",
							"type": "string"
						},
						{
							"indexed": false,
							"internalType": "uint256",
							"name": "productId",
							"type": "uint256"
						},
						{
							"indexed": false,
							"internalType": "address",
							"name": "seller",
							"type": "address"
						}
					],
					"name": "registered",
					"type": "event"
				},
				{
					"inputs": [
						{
							"internalType": "uint256",
							"name": "_productId",
							"type": "uint256"
						}
					],
					"name": "buy",
					"outputs": [],
					"stateMutability": "payable",
					"type": "function"
				},
				{
					"inputs": [],
					"name": "owner",
					"outputs": [
						{
							"internalType": "address",
							"name": "",
							"type": "address"
						}
					],
					"stateMutability": "view",
					"type": "function"
				},
				{
					"inputs": [
						{
							"internalType": "uint256",
							"name": "",
							"type": "uint256"
						}
					],
					"name": "products",
					"outputs": [
						{
							"internalType": "string",
							"name": "title",
							"type": "string"
						},
						{
							"internalType": "string",
							"name": "desc",
							"type": "string"
						},
						{
							"internalType": "address payable",
							"name": "seller",
							"type": "address"
						},
						{
							"internalType": "uint256",
							"name": "productId",
							"type": "uint256"
						},
						{
							"internalType": "uint256",
							"name": "price",
							"type": "uint256"
						},
						{
							"internalType": "address",
							"name": "buyer",
							"type": "address"
						},
						{
							"internalType": "bool",
							"name": "delivered",
							"type": "bool"
						}
					],
					"stateMutability": "view",
					"type": "function"
				},
				{
					"inputs": [
						{
							"internalType": "string",
							"name": "_title",
							"type": "string"
						},
						{
							"internalType": "string",
							"name": "_desc",
							"type": "string"
						},
						{
							"internalType": "uint256",
							"name": "_price",
							"type": "uint256"
						}
					],
					"name": "registerProduct",
					"outputs": [],
					"stateMutability": "nonpayable",
					"type": "function"
				}
			],
			"devdoc": {
				"kind": "dev",
				"methods": {},
				"version": 1
			},
			"evm": {
				"assembly": "    /* \"novemproject/Ecommerce.sol\":94:2321  contract Ecommerce {... */\n  mstore(0x40, 0x80)\n    /* \"novemproject/Ecommerce.sol\":873:874  1 */\n  0x01\n    /* \"novemproject/Ecommerce.sol\":858:874  uint counter = 1 */\n  dup1\n  sstore\n    /* \"novemproject/Ecommerce.sol\":383:444  constructor (address _owner){... */\n  callvalue\n  dup1\n  iszero\n  tag_1\n  jumpi\n  0x00\n  dup1\n  revert\ntag_1:\n  pop\n  mload(0x40)\n  sub(codesize, bytecodeSize)\n  dup1\n  bytecodeSize\n  dup4\n  codecopy\n  dup2\n  dup2\n  add\n  0x40\n  mstore\n  dup2\n  add\n  swap1\n  tag_2\n  swap2\n  swap1\n  tag_3\n  jump\t// in\ntag_2:\n    /* \"novemproject/Ecommerce.sol\":430:436  _owner */\n  dup1\n    /* \"novemproject/Ecommerce.sol\":422:427  owner */\n  0x00\n  dup1\n    /* \"novemproject/Ecommerce.sol\":422:436  owner = _owner */\n  0x0100\n  exp\n  dup2\n  sload\n  dup2\n  0xffffffffffffffffffffffffffffffffffffffff\n  mul\n  not\n  and\n  swap1\n  dup4\n  0xffffffffffffffffffffffffffffffffffffffff\n  and\n  mul\n  or\n  swap1\n  sstore\n  pop\n    /* \"novemproject/Ecommerce.sol\":383:444  constructor (address _owner){... */\n  pop\n    /* \"novemproject/Ecommerce.sol\":94:2321  contract Ecommerce {... */\n  jump(tag_6)\n    /* \"#utility.yul\":88:205   */\ntag_8:\n    /* \"#utility.yul\":197:198   */\n  0x00\n    /* \"#utility.yul\":194:195   */\n  dup1\n    /* \"#utility.yul\":187:199   */\n  revert\n    /* \"#utility.yul\":334:460   */\ntag_10:\n    /* \"#utility.yul\":371:378   */\n  0x00\n    /* \"#utility.yul\":411:453   */\n  0xffffffffffffffffffffffffffffffffffffffff\n    /* \"#utility.yul\":404:409   */\n  dup3\n    /* \"#utility.yul\":400:454   */\n  and\n    /* \"#utility.yul\":389:454   */\n  swap1\n  pop\n    /* \"#utility.yul\":334:460   */\n  swap2\n  swap1\n  pop\n  jump\t// out\n    /* \"#utility.yul\":466:562   */\ntag_11:\n    /* \"#utility.yul\":503:510   */\n  0x00\n    /* \"#utility.yul\":532:556   */\n  tag_20\n    /* \"#utility.yul\":550:555   */\n  dup3\n    /* \"#utility.yul\":532:556   */\n  tag_10\n  jump\t// in\ntag_20:\n    /* \"#utility.yul\":521:556   */\n  swap1\n  pop\n    /* \"#utility.yul\":466:562   */\n  swap2\n  swap1\n  pop\n  jump\t// out\n    /* \"#utility.yul\":568:690   */\ntag_12:\n    /* \"#utility.yul\":641:665   */\n  tag_22\n    /* \"#utility.yul\":659:664   */\n  dup2\n    /* \"#utility.yul\":641:665   */\n  tag_11\n  jump\t// in\ntag_22:\n    /* \"#utility.yul\":634:639   */\n  dup2\n    /* \"#utility.yul\":631:666   */\n  eq\n    /* \"#utility.yul\":621:684   */\n  tag_23\n  jumpi\n    /* \"#utility.yul\":680:681   */\n  0x00\n    /* \"#utility.yul\":677:678   */\n  dup1\n    /* \"#utility.yul\":670:682   */\n  revert\n    /* \"#utility.yul\":621:684   */\ntag_23:\n    /* \"#utility.yul\":568:690   */\n  pop\n  jump\t// out\n    /* \"#utility.yul\":696:839   */\ntag_13:\n    /* \"#utility.yul\":753:758   */\n  0x00\n    /* \"#utility.yul\":784:790   */\n  dup2\n    /* \"#utility.yul\":778:791   */\n  mload\n    /* \"#utility.yul\":769:791   */\n  swap1\n  pop\n    /* \"#utility.yul\":800:833   */\n  tag_25\n    /* \"#utility.yul\":827:832   */\n  dup2\n    /* \"#utility.yul\":800:833   */\n  tag_12\n  jump\t// in\ntag_25:\n    /* \"#utility.yul\":696:839   */\n  swap3\n  swap2\n  pop\n  pop\n  jump\t// out\n    /* \"#utility.yul\":845:1196   */\ntag_3:\n    /* \"#utility.yul\":915:921   */\n  0x00\n    /* \"#utility.yul\":964:966   */\n  0x20\n    /* \"#utility.yul\":952:961   */\n  dup3\n    /* \"#utility.yul\":943:950   */\n  dup5\n    /* \"#utility.yul\":939:962   */\n  sub\n    /* \"#utility.yul\":935:967   */\n  slt\n    /* \"#utility.yul\":932:1051   */\n  iszero\n  tag_27\n  jumpi\n    /* \"#utility.yul\":970:1049   */\n  tag_28\n  tag_8\n  jump\t// in\ntag_28:\n    /* \"#utility.yul\":932:1051   */\ntag_27:\n    /* \"#utility.yul\":1090:1091   */\n  0x00\n    /* \"#utility.yul\":1115:1179   */\n  tag_29\n    /* \"#utility.yul\":1171:1178   */\n  dup5\n    /* \"#utility.yul\":1162:1168   */\n  dup3\n    /* \"#utility.yul\":1151:1160   */\n  dup6\n    /* \"#utility.yul\":1147:1169   */\n  add\n    /* \"#utility.yul\":1115:1179   */\n  tag_13\n  jump\t// in\ntag_29:\n    /* \"#utility.yul\":1105:1179   */\n  swap2\n  pop\n    /* \"#utility.yul\":1061:1189   */\n  pop\n    /* \"#utility.yul\":845:1196   */\n  swap3\n  swap2\n  pop\n  pop\n  jump\t// out\n    /* \"novemproject/Ecommerce.sol\":94:2321  contract Ecommerce {... */\ntag_6:\n  dataSize(sub_0)\n  dup1\n  dataOffset(sub_0)\n  0x00\n  codecopy\n  0x00\n  return\nstop\n\nsub_0: assembly {\n        /* \"novemproject/Ecommerce.sol\":94:2321  contract Ecommerce {... */\n      mstore(0x40, 0x80)\n      jumpi(tag_1, lt(calldatasize, 0x04))\n      shr(0xe0, calldataload(0x00))\n      dup1\n      0x3153a15b\n      eq\n      tag_2\n      jumpi\n      dup1\n      0x7acc0b20\n      eq\n      tag_3\n      jumpi\n      dup1\n      0x8da5cb5b\n      eq\n      tag_4\n      jumpi\n      dup1\n      0xd96a094a\n      eq\n      tag_5\n      jumpi\n    tag_1:\n      0x00\n      dup1\n      revert\n        /* \"novemproject/Ecommerce.sol\":1278:1749  function registerProduct (string memory _title, string memory _desc, uint _price) public {... */\n    tag_2:\n      callvalue\n      dup1\n      iszero\n      tag_6\n      jumpi\n      0x00\n      dup1\n      revert\n    tag_6:\n      pop\n      tag_7\n      0x04\n      dup1\n      calldatasize\n      sub\n      dup2\n      add\n      swap1\n      tag_8\n      swap2\n      swap1\n      tag_9\n      jump\t// in\n    tag_8:\n      tag_10\n      jump\t// in\n    tag_7:\n      stop\n        /* \"novemproject/Ecommerce.sol\":881:906  product[] public products */\n    tag_3:\n      callvalue\n      dup1\n      iszero\n      tag_11\n      jumpi\n      0x00\n      dup1\n      revert\n    tag_11:\n      pop\n      tag_12\n      0x04\n      dup1\n      calldatasize\n      sub\n      dup2\n      add\n      swap1\n      tag_13\n      swap2\n      swap1\n      tag_14\n      jump\t// in\n    tag_13:\n      tag_15\n      jump\t// in\n    tag_12:\n      mload(0x40)\n      tag_16\n      swap8\n      swap7\n      swap6\n      swap5\n      swap4\n      swap3\n      swap2\n      swap1\n      tag_17\n      jump\t// in\n    tag_16:\n      mload(0x40)\n      dup1\n      swap2\n      sub\n      swap1\n      return\n        /* \"novemproject/Ecommerce.sol\":291:311  address public owner */\n    tag_4:\n      callvalue\n      dup1\n      iszero\n      tag_18\n      jumpi\n      0x00\n      dup1\n      revert\n    tag_18:\n      pop\n      tag_19\n      tag_20\n      jump\t// in\n    tag_19:\n      mload(0x40)\n      tag_21\n      swap2\n      swap1\n      tag_22\n      jump\t// in\n    tag_21:\n      mload(0x40)\n      dup1\n      swap2\n      sub\n      swap1\n      return\n        /* \"novemproject/Ecommerce.sol\":1987:2316  function buy(uint _productId) payable public{... */\n    tag_5:\n      tag_23\n      0x04\n      dup1\n      calldatasize\n      sub\n      dup2\n      add\n      swap1\n      tag_24\n      swap2\n      swap1\n      tag_14\n      jump\t// in\n    tag_24:\n      tag_25\n      jump\t// in\n    tag_23:\n      stop\n        /* \"novemproject/Ecommerce.sol\":1278:1749  function registerProduct (string memory _title, string memory _desc, uint _price) public {... */\n    tag_10:\n        /* \"novemproject/Ecommerce.sol\":1378:1404  product memory tempProduct */\n      tag_27\n      tag_28\n      jump\t// in\n    tag_27:\n        /* \"novemproject/Ecommerce.sol\":1435:1441  _title */\n      dup4\n        /* \"novemproject/Ecommerce.sol\":1415:1426  tempProduct */\n      dup2\n        /* \"novemproject/Ecommerce.sol\":1415:1432  tempProduct.title */\n      0x00\n      add\n        /* \"novemproject/Ecommerce.sol\":1415:1441  tempProduct.title = _title */\n      dup2\n      swap1\n      mstore\n      pop\n        /* \"novemproject/Ecommerce.sol\":1471:1476  _desc */\n      dup3\n        /* \"novemproject/Ecommerce.sol\":1452:1463  tempProduct */\n      dup2\n        /* \"novemproject/Ecommerce.sol\":1452:1468  tempProduct.desc */\n      0x20\n      add\n        /* \"novemproject/Ecommerce.sol\":1452:1476  tempProduct.desc = _desc */\n      dup2\n      swap1\n      mstore\n      pop\n        /* \"novemproject/Ecommerce.sol\":1516:1522  10**18 */\n      0x0de0b6b3a7640000\n        /* \"novemproject/Ecommerce.sol\":1507:1513  _price */\n      dup3\n        /* \"novemproject/Ecommerce.sol\":1507:1522  _price * 10**18 */\n      tag_29\n      swap2\n      swap1\n      tag_30\n      jump\t// in\n    tag_29:\n        /* \"novemproject/Ecommerce.sol\":1487:1498  tempProduct */\n      dup2\n        /* \"novemproject/Ecommerce.sol\":1487:1504  tempProduct.price */\n      0x80\n      add\n        /* \"novemproject/Ecommerce.sol\":1487:1522  tempProduct.price = _price * 10**18 */\n      dup2\n      dup2\n      mstore\n      pop\n      pop\n        /* \"novemproject/Ecommerce.sol\":1562:1572  msg.sender */\n      caller\n        /* \"novemproject/Ecommerce.sol\":1533:1544  tempProduct */\n      dup2\n        /* \"novemproject/Ecommerce.sol\":1533:1551  tempProduct.seller */\n      0x40\n      add\n        /* \"novemproject/Ecommerce.sol\":1533:1573  tempProduct.seller = payable(msg.sender) */\n      swap1\n      0xffffffffffffffffffffffffffffffffffffffff\n      and\n      swap1\n      dup2\n      0xffffffffffffffffffffffffffffffffffffffff\n      and\n      dup2\n      mstore\n      pop\n      pop\n        /* \"novemproject/Ecommerce.sol\":1608:1615  counter */\n      sload(0x01)\n        /* \"novemproject/Ecommerce.sol\":1584:1595  tempProduct */\n      dup2\n        /* \"novemproject/Ecommerce.sol\":1584:1605  tempProduct.productId */\n      0x60\n      add\n        /* \"novemproject/Ecommerce.sol\":1584:1615  tempProduct.productId = counter */\n      dup2\n      dup2\n      mstore\n      pop\n      pop\n        /* \"novemproject/Ecommerce.sol\":1626:1634  products */\n      0x02\n        /* \"novemproject/Ecommerce.sol\":1640:1651  tempProduct */\n      dup2\n        /* \"novemproject/Ecommerce.sol\":1626:1652  products.push(tempProduct) */\n      swap1\n      dup1\n      0x01\n      dup2\n      sload\n      add\n      dup1\n      dup3\n      sstore\n      dup1\n      swap2\n      pop\n      pop\n      0x01\n      swap1\n      sub\n      swap1\n      0x00\n      mstore\n      keccak256(0x00, 0x20)\n      swap1\n      0x06\n      mul\n      add\n      0x00\n      swap1\n      swap2\n      swap1\n      swap2\n      swap1\n      swap2\n      pop\n      0x00\n      dup3\n      add\n      mload\n      dup2\n      0x00\n      add\n      swap1\n      dup2\n      tag_32\n      swap2\n      swap1\n      tag_33\n      jump\t// in\n    tag_32:\n      pop\n      0x20\n      dup3\n      add\n      mload\n      dup2\n      0x01\n      add\n      swap1\n      dup2\n      tag_34\n      swap2\n      swap1\n      tag_33\n      jump\t// in\n    tag_34:\n      pop\n      0x40\n      dup3\n      add\n      mload\n      dup2\n      0x02\n      add\n      exp(0x0100, 0x00)\n      dup2\n      sload\n      dup2\n      0xffffffffffffffffffffffffffffffffffffffff\n      mul\n      not\n      and\n      swap1\n      dup4\n      0xffffffffffffffffffffffffffffffffffffffff\n      and\n      mul\n      or\n      swap1\n      sstore\n      pop\n      0x60\n      dup3\n      add\n      mload\n      dup2\n      0x03\n      add\n      sstore\n      0x80\n      dup3\n      add\n      mload\n      dup2\n      0x04\n      add\n      sstore\n      0xa0\n      dup3\n      add\n      mload\n      dup2\n      0x05\n      add\n      exp(0x0100, 0x00)\n      dup2\n      sload\n      dup2\n      0xffffffffffffffffffffffffffffffffffffffff\n      mul\n      not\n      and\n      swap1\n      dup4\n      0xffffffffffffffffffffffffffffffffffffffff\n      and\n      mul\n      or\n      swap1\n      sstore\n      pop\n      0xc0\n      dup3\n      add\n      mload\n      dup2\n      0x05\n      add\n      exp(0x0100, 0x14)\n      dup2\n      sload\n      dup2\n      0xff\n      mul\n      not\n      and\n      swap1\n      dup4\n      iszero\n      iszero\n      mul\n      or\n      swap1\n      sstore\n      pop\n      pop\n      pop\n        /* \"novemproject/Ecommerce.sol\":1663:1670  counter */\n      0x01\n      0x00\n        /* \"novemproject/Ecommerce.sol\":1663:1672  counter++ */\n      dup2\n      sload\n      dup1\n      swap3\n      swap2\n      swap1\n      tag_35\n      swap1\n      tag_36\n      jump\t// in\n    tag_35:\n      swap2\n      swap1\n      pop\n      sstore\n      pop\n        /* \"novemproject/Ecommerce.sol\":1688:1741  registered(_title, tempProduct.productId, msg.sender) */\n      0x2f2d57060110e728629fcdcfd43a3b0f571b51ca1899668910d777e935601e3e\n        /* \"novemproject/Ecommerce.sol\":1699:1705  _title */\n      dup5\n        /* \"novemproject/Ecommerce.sol\":1707:1718  tempProduct */\n      dup3\n        /* \"novemproject/Ecommerce.sol\":1707:1728  tempProduct.productId */\n      0x60\n      add\n      mload\n        /* \"novemproject/Ecommerce.sol\":1730:1740  msg.sender */\n      caller\n        /* \"novemproject/Ecommerce.sol\":1688:1741  registered(_title, tempProduct.productId, msg.sender) */\n      mload(0x40)\n      tag_37\n      swap4\n      swap3\n      swap2\n      swap1\n      tag_38\n      jump\t// in\n    tag_37:\n      mload(0x40)\n      dup1\n      swap2\n      sub\n      swap1\n      log1\n        /* \"novemproject/Ecommerce.sol\":1367:1749  {... */\n      pop\n        /* \"novemproject/Ecommerce.sol\":1278:1749  function registerProduct (string memory _title, string memory _desc, uint _price) public {... */\n      pop\n      pop\n      pop\n      jump\t// out\n        /* \"novemproject/Ecommerce.sol\":881:906  product[] public products */\n    tag_15:\n      0x02\n      dup2\n      dup2\n      sload\n      dup2\n      lt\n      tag_39\n      jumpi\n      0x00\n      dup1\n      revert\n    tag_39:\n      swap1\n      0x00\n      mstore\n      keccak256(0x00, 0x20)\n      swap1\n      0x06\n      mul\n      add\n      0x00\n      swap2\n      pop\n      swap1\n      pop\n      dup1\n      0x00\n      add\n      dup1\n      sload\n      tag_41\n      swap1\n      tag_42\n      jump\t// in\n    tag_41:\n      dup1\n      0x1f\n      add\n      0x20\n      dup1\n      swap2\n      div\n      mul\n      0x20\n      add\n      mload(0x40)\n      swap1\n      dup2\n      add\n      0x40\n      mstore\n      dup1\n      swap3\n      swap2\n      swap1\n      dup2\n      dup2\n      mstore\n      0x20\n      add\n      dup3\n      dup1\n      sload\n      tag_43\n      swap1\n      tag_42\n      jump\t// in\n    tag_43:\n      dup1\n      iszero\n      tag_44\n      jumpi\n      dup1\n      0x1f\n      lt\n      tag_45\n      jumpi\n      0x0100\n      dup1\n      dup4\n      sload\n      div\n      mul\n      dup4\n      mstore\n      swap2\n      0x20\n      add\n      swap2\n      jump(tag_44)\n    tag_45:\n      dup3\n      add\n      swap2\n      swap1\n      0x00\n      mstore\n      keccak256(0x00, 0x20)\n      swap1\n    tag_46:\n      dup2\n      sload\n      dup2\n      mstore\n      swap1\n      0x01\n      add\n      swap1\n      0x20\n      add\n      dup1\n      dup4\n      gt\n      tag_46\n      jumpi\n      dup3\n      swap1\n      sub\n      0x1f\n      and\n      dup3\n      add\n      swap2\n    tag_44:\n      pop\n      pop\n      pop\n      pop\n      pop\n      swap1\n      dup1\n      0x01\n      add\n      dup1\n      sload\n      tag_47\n      swap1\n      tag_42\n      jump\t// in\n    tag_47:\n      dup1\n      0x1f\n      add\n      0x20\n      dup1\n      swap2\n      div\n      mul\n      0x20\n      add\n      mload(0x40)\n      swap1\n      dup2\n      add\n      0x40\n      mstore\n      dup1\n      swap3\n      swap2\n      swap1\n      dup2\n      dup2\n      mstore\n      0x20\n      add\n      dup3\n      dup1\n      sload\n      tag_48\n      swap1\n      tag_42\n      jump\t// in\n    tag_48:\n      dup1\n      iszero\n      tag_49\n      jumpi\n      dup1\n      0x1f\n      lt\n      tag_50\n      jumpi\n      0x0100\n      dup1\n      dup4\n      sload\n      div\n      mul\n      dup4\n      mstore\n      swap2\n      0x20\n      add\n      swap2\n      jump(tag_49)\n    tag_50:\n      dup3\n      add\n      swap2\n      swap1\n      0x00\n      mstore\n      keccak256(0x00, 0x20)\n      swap1\n    tag_51:\n      dup2\n      sload\n      dup2\n      mstore\n      swap1\n      0x01\n      add\n      swap1\n      0x20\n      add\n      dup1\n      dup4\n      gt\n      tag_51\n      jumpi\n      dup3\n      swap1\n      sub\n      0x1f\n      and\n      dup3\n      add\n      swap2\n    tag_49:\n      pop\n      pop\n      pop\n      pop\n      pop\n      swap1\n      dup1\n      0x02\n      add\n      0x00\n      swap1\n      sload\n      swap1\n      0x0100\n      exp\n      swap1\n      div\n      0xffffffffffffffffffffffffffffffffffffffff\n      and\n      swap1\n      dup1\n      0x03\n      add\n      sload\n      swap1\n      dup1\n      0x04\n      add\n      sload\n      swap1\n      dup1\n      0x05\n      add\n      0x00\n      swap1\n      sload\n      swap1\n      0x0100\n      exp\n      swap1\n      div\n      0xffffffffffffffffffffffffffffffffffffffff\n      and\n      swap1\n      dup1\n      0x05\n      add\n      0x14\n      swap1\n      sload\n      swap1\n      0x0100\n      exp\n      swap1\n      div\n      0xff\n      and\n      swap1\n      pop\n      dup8\n      jump\t// out\n        /* \"novemproject/Ecommerce.sol\":291:311  address public owner */\n    tag_20:\n      0x00\n      dup1\n      sload\n      swap1\n      0x0100\n      exp\n      swap1\n      div\n      0xffffffffffffffffffffffffffffffffffffffff\n      and\n      dup2\n      jump\t// out\n        /* \"novemproject/Ecommerce.sol\":1987:2316  function buy(uint _productId) payable public{... */\n    tag_25:\n        /* \"novemproject/Ecommerce.sol\":2080:2089  msg.value */\n      callvalue\n        /* \"novemproject/Ecommerce.sol\":2050:2058  products */\n      0x02\n        /* \"novemproject/Ecommerce.sol\":2070:2071  1 */\n      0x01\n        /* \"novemproject/Ecommerce.sol\":2059:2069  _productId */\n      dup4\n        /* \"novemproject/Ecommerce.sol\":2059:2071  _productId-1 */\n      tag_53\n      swap2\n      swap1\n      tag_54\n      jump\t// in\n    tag_53:\n        /* \"novemproject/Ecommerce.sol\":2050:2072  products[_productId-1] */\n      dup2\n      sload\n      dup2\n      lt\n      tag_55\n      jumpi\n      tag_56\n      tag_57\n      jump\t// in\n    tag_56:\n    tag_55:\n      swap1\n      0x00\n      mstore\n      keccak256(0x00, 0x20)\n      swap1\n      0x06\n      mul\n      add\n        /* \"novemproject/Ecommerce.sol\":2050:2078  products[_productId-1].price */\n      0x04\n      add\n      sload\n        /* \"novemproject/Ecommerce.sol\":2050:2089  products[_productId-1].price==msg.value */\n      eq\n        /* \"novemproject/Ecommerce.sol\":2042:2120  require(products[_productId-1].price==msg.value, \"please pay the exact price\") */\n      tag_59\n      jumpi\n      mload(0x40)\n      0x08c379a000000000000000000000000000000000000000000000000000000000\n      dup2\n      mstore\n      0x04\n      add\n      tag_60\n      swap1\n      tag_61\n      jump\t// in\n    tag_60:\n      mload(0x40)\n      dup1\n      swap2\n      sub\n      swap1\n      revert\n    tag_59:\n        /* \"novemproject/Ecommerce.sol\":2170:2180  msg.sender */\n      caller\n        /* \"novemproject/Ecommerce.sol\":2139:2180  products[_productId-1].seller!=msg.sender */\n      0xffffffffffffffffffffffffffffffffffffffff\n      and\n        /* \"novemproject/Ecommerce.sol\":2139:2147  products */\n      0x02\n        /* \"novemproject/Ecommerce.sol\":2159:2160  1 */\n      0x01\n        /* \"novemproject/Ecommerce.sol\":2148:2158  _productId */\n      dup4\n        /* \"novemproject/Ecommerce.sol\":2148:2160  _productId-1 */\n      tag_62\n      swap2\n      swap1\n      tag_54\n      jump\t// in\n    tag_62:\n        /* \"novemproject/Ecommerce.sol\":2139:2161  products[_productId-1] */\n      dup2\n      sload\n      dup2\n      lt\n      tag_63\n      jumpi\n      tag_64\n      tag_57\n      jump\t// in\n    tag_64:\n    tag_63:\n      swap1\n      0x00\n      mstore\n      keccak256(0x00, 0x20)\n      swap1\n      0x06\n      mul\n      add\n        /* \"novemproject/Ecommerce.sol\":2139:2168  products[_productId-1].seller */\n      0x02\n      add\n      0x00\n      swap1\n      sload\n      swap1\n      0x0100\n      exp\n      swap1\n      div\n      0xffffffffffffffffffffffffffffffffffffffff\n      and\n        /* \"novemproject/Ecommerce.sol\":2139:2180  products[_productId-1].seller!=msg.sender */\n      0xffffffffffffffffffffffffffffffffffffffff\n      and\n      sub\n        /* \"novemproject/Ecommerce.sol\":2131:2211  require(products[_productId-1].seller!=msg.sender, \"Seller cannot be the buyer\") */\n      tag_66\n      jumpi\n      mload(0x40)\n      0x08c379a000000000000000000000000000000000000000000000000000000000\n      dup2\n      mstore\n      0x04\n      add\n      tag_67\n      swap1\n      tag_68\n      jump\t// in\n    tag_67:\n      mload(0x40)\n      dup1\n      swap2\n      sub\n      swap1\n      revert\n    tag_66:\n        /* \"novemproject/Ecommerce.sol\":2252:2262  msg.sender */\n      caller\n        /* \"novemproject/Ecommerce.sol\":2222:2262  products[_productId-1].buyer==msg.sender */\n      0xffffffffffffffffffffffffffffffffffffffff\n      and\n        /* \"novemproject/Ecommerce.sol\":2222:2230  products */\n      0x02\n        /* \"novemproject/Ecommerce.sol\":2242:2243  1 */\n      0x01\n        /* \"novemproject/Ecommerce.sol\":2231:2241  _productId */\n      dup4\n        /* \"novemproject/Ecommerce.sol\":2231:2243  _productId-1 */\n      tag_69\n      swap2\n      swap1\n      tag_54\n      jump\t// in\n    tag_69:\n        /* \"novemproject/Ecommerce.sol\":2222:2244  products[_productId-1] */\n      dup2\n      sload\n      dup2\n      lt\n      tag_70\n      jumpi\n      tag_71\n      tag_57\n      jump\t// in\n    tag_71:\n    tag_70:\n      swap1\n      0x00\n      mstore\n      keccak256(0x00, 0x20)\n      swap1\n      0x06\n      mul\n      add\n        /* \"novemproject/Ecommerce.sol\":2222:2250  products[_productId-1].buyer */\n      0x05\n      add\n      0x00\n      swap1\n      sload\n      swap1\n      0x0100\n      exp\n      swap1\n      pop\n      pop\n        /* \"novemproject/Ecommerce.sol\":2222:2262  products[_productId-1].buyer==msg.sender */\n      pop\n        /* \"novemproject/Ecommerce.sol\":2278:2308  bought(_productId, msg.sender) */\n      0x2c9b5e9655a41ab13c5183c231239df125ecbd546a947624c913cfd43094906e\n        /* \"novemproject/Ecommerce.sol\":2285:2295  _productId */\n      dup2\n        /* \"novemproject/Ecommerce.sol\":2297:2307  msg.sender */\n      caller\n        /* \"novemproject/Ecommerce.sol\":2278:2308  bought(_productId, msg.sender) */\n      mload(0x40)\n      tag_73\n      swap3\n      swap2\n      swap1\n      tag_74\n      jump\t// in\n    tag_73:\n      mload(0x40)\n      dup1\n      swap2\n      sub\n      swap1\n      log1\n        /* \"novemproject/Ecommerce.sol\":1987:2316  function buy(uint _productId) payable public{... */\n      pop\n      jump\t// out\n    tag_28:\n      mload(0x40)\n      dup1\n      0xe0\n      add\n      0x40\n      mstore\n      dup1\n      0x60\n      dup2\n      mstore\n      0x20\n      add\n      0x60\n      dup2\n      mstore\n      0x20\n      add\n      and(0xffffffffffffffffffffffffffffffffffffffff, 0x00)\n      dup2\n      mstore\n      0x20\n      add\n      0x00\n      dup2\n      mstore\n      0x20\n      add\n      0x00\n      dup2\n      mstore\n      0x20\n      add\n      and(0xffffffffffffffffffffffffffffffffffffffff, 0x00)\n      dup2\n      mstore\n      0x20\n      add\n      iszero(iszero(0x00))\n      dup2\n      mstore\n      pop\n      swap1\n      jump\t// out\n        /* \"#utility.yul\":7:82   */\n    tag_75:\n        /* \"#utility.yul\":40:46   */\n      0x00\n        /* \"#utility.yul\":73:75   */\n      0x40\n        /* \"#utility.yul\":67:76   */\n      mload\n        /* \"#utility.yul\":57:76   */\n      swap1\n      pop\n        /* \"#utility.yul\":7:82   */\n      swap1\n      jump\t// out\n        /* \"#utility.yul\":88:205   */\n    tag_76:\n        /* \"#utility.yul\":197:198   */\n      0x00\n        /* \"#utility.yul\":194:195   */\n      dup1\n        /* \"#utility.yul\":187:199   */\n      revert\n        /* \"#utility.yul\":211:328   */\n    tag_77:\n        /* \"#utility.yul\":320:321   */\n      0x00\n        /* \"#utility.yul\":317:318   */\n      dup1\n        /* \"#utility.yul\":310:322   */\n      revert\n        /* \"#utility.yul\":334:451   */\n    tag_78:\n        /* \"#utility.yul\":443:444   */\n      0x00\n        /* \"#utility.yul\":440:441   */\n      dup1\n        /* \"#utility.yul\":433:445   */\n      revert\n        /* \"#utility.yul\":457:574   */\n    tag_79:\n        /* \"#utility.yul\":566:567   */\n      0x00\n        /* \"#utility.yul\":563:564   */\n      dup1\n        /* \"#utility.yul\":556:568   */\n      revert\n        /* \"#utility.yul\":580:682   */\n    tag_80:\n        /* \"#utility.yul\":621:627   */\n      0x00\n        /* \"#utility.yul\":672:674   */\n      0x1f\n        /* \"#utility.yul\":668:675   */\n      not\n        /* \"#utility.yul\":663:665   */\n      0x1f\n        /* \"#utility.yul\":656:661   */\n      dup4\n        /* \"#utility.yul\":652:666   */\n      add\n        /* \"#utility.yul\":648:676   */\n      and\n        /* \"#utility.yul\":638:676   */\n      swap1\n      pop\n        /* \"#utility.yul\":580:682   */\n      swap2\n      swap1\n      pop\n      jump\t// out\n        /* \"#utility.yul\":688:868   */\n    tag_81:\n        /* \"#utility.yul\":736:813   */\n      0x4e487b7100000000000000000000000000000000000000000000000000000000\n        /* \"#utility.yul\":733:734   */\n      0x00\n        /* \"#utility.yul\":726:814   */\n      mstore\n        /* \"#utility.yul\":833:837   */\n      0x41\n        /* \"#utility.yul\":830:831   */\n      0x04\n        /* \"#utility.yul\":823:838   */\n      mstore\n        /* \"#utility.yul\":857:861   */\n      0x24\n        /* \"#utility.yul\":854:855   */\n      0x00\n        /* \"#utility.yul\":847:862   */\n      revert\n        /* \"#utility.yul\":874:1155   */\n    tag_82:\n        /* \"#utility.yul\":957:984   */\n      tag_133\n        /* \"#utility.yul\":979:983   */\n      dup3\n        /* \"#utility.yul\":957:984   */\n      tag_80\n      jump\t// in\n    tag_133:\n        /* \"#utility.yul\":949:955   */\n      dup2\n        /* \"#utility.yul\":945:985   */\n      add\n        /* \"#utility.yul\":1087:1093   */\n      dup2\n        /* \"#utility.yul\":1075:1085   */\n      dup2\n        /* \"#utility.yul\":1072:1094   */\n      lt\n        /* \"#utility.yul\":1051:1069   */\n      0xffffffffffffffff\n        /* \"#utility.yul\":1039:1049   */\n      dup3\n        /* \"#utility.yul\":1036:1070   */\n      gt\n        /* \"#utility.yul\":1033:1095   */\n      or\n        /* \"#utility.yul\":1030:1118   */\n      iszero\n      tag_134\n      jumpi\n        /* \"#utility.yul\":1098:1116   */\n      tag_135\n      tag_81\n      jump\t// in\n    tag_135:\n        /* \"#utility.yul\":1030:1118   */\n    tag_134:\n        /* \"#utility.yul\":1138:1148   */\n      dup1\n        /* \"#utility.yul\":1134:1136   */\n      0x40\n        /* \"#utility.yul\":1127:1149   */\n      mstore\n        /* \"#utility.yul\":917:1155   */\n      pop\n        /* \"#utility.yul\":874:1155   */\n      pop\n      pop\n      jump\t// out\n        /* \"#utility.yul\":1161:1290   */\n    tag_83:\n        /* \"#utility.yul\":1195:1201   */\n      0x00\n        /* \"#utility.yul\":1222:1242   */\n      tag_137\n      tag_75\n      jump\t// in\n    tag_137:\n        /* \"#utility.yul\":1212:1242   */\n      swap1\n      pop\n        /* \"#utility.yul\":1251:1284   */\n      tag_138\n        /* \"#utility.yul\":1279:1283   */\n      dup3\n        /* \"#utility.yul\":1271:1277   */\n      dup3\n        /* \"#utility.yul\":1251:1284   */\n      tag_82\n      jump\t// in\n    tag_138:\n        /* \"#utility.yul\":1161:1290   */\n      swap2\n      swap1\n      pop\n      jump\t// out\n        /* \"#utility.yul\":1296:1604   */\n    tag_84:\n        /* \"#utility.yul\":1358:1362   */\n      0x00\n        /* \"#utility.yul\":1448:1466   */\n      0xffffffffffffffff\n        /* \"#utility.yul\":1440:1446   */\n      dup3\n        /* \"#utility.yul\":1437:1467   */\n      gt\n        /* \"#utility.yul\":1434:1490   */\n      iszero\n      tag_140\n      jumpi\n        /* \"#utility.yul\":1470:1488   */\n      tag_141\n      tag_81\n      jump\t// in\n    tag_141:\n        /* \"#utility.yul\":1434:1490   */\n    tag_140:\n        /* \"#utility.yul\":1508:1537   */\n      tag_142\n        /* \"#utility.yul\":1530:1536   */\n      dup3\n        /* \"#utility.yul\":1508:1537   */\n      tag_80\n      jump\t// in\n    tag_142:\n        /* \"#utility.yul\":1500:1537   */\n      swap1\n      pop\n        /* \"#utility.yul\":1592:1596   */\n      0x20\n        /* \"#utility.yul\":1586:1590   */\n      dup2\n        /* \"#utility.yul\":1582:1597   */\n      add\n        /* \"#utility.yul\":1574:1597   */\n      swap1\n      pop\n        /* \"#utility.yul\":1296:1604   */\n      swap2\n      swap1\n      pop\n      jump\t// out\n        /* \"#utility.yul\":1610:1756   */\n    tag_85:\n        /* \"#utility.yul\":1707:1713   */\n      dup3\n        /* \"#utility.yul\":1702:1705   */\n      dup2\n        /* \"#utility.yul\":1697:1700   */\n      dup4\n        /* \"#utility.yul\":1684:1714   */\n      calldatacopy\n        /* \"#utility.yul\":1748:1749   */\n      0x00\n        /* \"#utility.yul\":1739:1745   */\n      dup4\n        /* \"#utility.yul\":1734:1737   */\n      dup4\n        /* \"#utility.yul\":1730:1746   */\n      add\n        /* \"#utility.yul\":1723:1750   */\n      mstore\n        /* \"#utility.yul\":1610:1756   */\n      pop\n      pop\n      pop\n      jump\t// out\n        /* \"#utility.yul\":1762:2187   */\n    tag_86:\n        /* \"#utility.yul\":1840:1845   */\n      0x00\n        /* \"#utility.yul\":1865:1931   */\n      tag_145\n        /* \"#utility.yul\":1881:1930   */\n      tag_146\n        /* \"#utility.yul\":1923:1929   */\n      dup5\n        /* \"#utility.yul\":1881:1930   */\n      tag_84\n      jump\t// in\n    tag_146:\n        /* \"#utility.yul\":1865:1931   */\n      tag_83\n      jump\t// in\n    tag_145:\n        /* \"#utility.yul\":1856:1931   */\n      swap1\n      pop\n        /* \"#utility.yul\":1954:1960   */\n      dup3\n        /* \"#utility.yul\":1947:1952   */\n      dup2\n        /* \"#utility.yul\":1940:1961   */\n      mstore\n        /* \"#utility.yul\":1992:1996   */\n      0x20\n        /* \"#utility.yul\":1985:1990   */\n      dup2\n        /* \"#utility.yul\":1981:1997   */\n      add\n        /* \"#utility.yul\":2030:2033   */\n      dup5\n        /* \"#utility.yul\":2021:2027   */\n      dup5\n        /* \"#utility.yul\":2016:2019   */\n      dup5\n        /* \"#utility.yul\":2012:2028   */\n      add\n        /* \"#utility.yul\":2009:2034   */\n      gt\n        /* \"#utility.yul\":2006:2118   */\n      iszero\n      tag_147\n      jumpi\n        /* \"#utility.yul\":2037:2116   */\n      tag_148\n      tag_79\n      jump\t// in\n    tag_148:\n        /* \"#utility.yul\":2006:2118   */\n    tag_147:\n        /* \"#utility.yul\":2127:2181   */\n      tag_149\n        /* \"#utility.yul\":2174:2180   */\n      dup5\n        /* \"#utility.yul\":2169:2172   */\n      dup3\n        /* \"#utility.yul\":2164:2167   */\n      dup6\n        /* \"#utility.yul\":2127:2181   */\n      tag_85\n      jump\t// in\n    tag_149:\n        /* \"#utility.yul\":1846:2187   */\n      pop\n        /* \"#utility.yul\":1762:2187   */\n      swap4\n      swap3\n      pop\n      pop\n      pop\n      jump\t// out\n        /* \"#utility.yul\":2207:2547   */\n    tag_87:\n        /* \"#utility.yul\":2263:2268   */\n      0x00\n        /* \"#utility.yul\":2312:2315   */\n      dup3\n        /* \"#utility.yul\":2305:2309   */\n      0x1f\n        /* \"#utility.yul\":2297:2303   */\n      dup4\n        /* \"#utility.yul\":2293:2310   */\n      add\n        /* \"#utility.yul\":2289:2316   */\n      slt\n        /* \"#utility.yul\":2279:2401   */\n      tag_151\n      jumpi\n        /* \"#utility.yul\":2320:2399   */\n      tag_152\n      tag_78\n      jump\t// in\n    tag_152:\n        /* \"#utility.yul\":2279:2401   */\n    tag_151:\n        /* \"#utility.yul\":2437:2443   */\n      dup2\n        /* \"#utility.yul\":2424:2444   */\n      calldataload\n        /* \"#utility.yul\":2462:2541   */\n      tag_153\n        /* \"#utility.yul\":2537:2540   */\n      dup5\n        /* \"#utility.yul\":2529:2535   */\n      dup3\n        /* \"#utility.yul\":2522:2526   */\n      0x20\n        /* \"#utility.yul\":2514:2520   */\n      dup7\n        /* \"#utility.yul\":2510:2527   */\n      add\n        /* \"#utility.yul\":2462:2541   */\n      tag_86\n      jump\t// in\n    tag_153:\n        /* \"#utility.yul\":2453:2541   */\n      swap2\n      pop\n        /* \"#utility.yul\":2269:2547   */\n      pop\n        /* \"#utility.yul\":2207:2547   */\n      swap3\n      swap2\n      pop\n      pop\n      jump\t// out\n        /* \"#utility.yul\":2553:2630   */\n    tag_88:\n        /* \"#utility.yul\":2590:2597   */\n      0x00\n        /* \"#utility.yul\":2619:2624   */\n      dup2\n        /* \"#utility.yul\":2608:2624   */\n      swap1\n      pop\n        /* \"#utility.yul\":2553:2630   */\n      swap2\n      swap1\n      pop\n      jump\t// out\n        /* \"#utility.yul\":2636:2758   */\n    tag_89:\n        /* \"#utility.yul\":2709:2733   */\n      tag_156\n        /* \"#utility.yul\":2727:2732   */\n      dup2\n        /* \"#utility.yul\":2709:2733   */\n      tag_88\n      jump\t// in\n    tag_156:\n        /* \"#utility.yul\":2702:2707   */\n      dup2\n        /* \"#utility.yul\":2699:2734   */\n      eq\n        /* \"#utility.yul\":2689:2752   */\n      tag_157\n      jumpi\n        /* \"#utility.yul\":2748:2749   */\n      0x00\n        /* \"#utility.yul\":2745:2746   */\n      dup1\n        /* \"#utility.yul\":2738:2750   */\n      revert\n        /* \"#utility.yul\":2689:2752   */\n    tag_157:\n        /* \"#utility.yul\":2636:2758   */\n      pop\n      jump\t// out\n        /* \"#utility.yul\":2764:2903   */\n    tag_90:\n        /* \"#utility.yul\":2810:2815   */\n      0x00\n        /* \"#utility.yul\":2848:2854   */\n      dup2\n        /* \"#utility.yul\":2835:2855   */\n      calldataload\n        /* \"#utility.yul\":2826:2855   */\n      swap1\n      pop\n        /* \"#utility.yul\":2864:2897   */\n      tag_159\n        /* \"#utility.yul\":2891:2896   */\n      dup2\n        /* \"#utility.yul\":2864:2897   */\n      tag_89\n      jump\t// in\n    tag_159:\n        /* \"#utility.yul\":2764:2903   */\n      swap3\n      swap2\n      pop\n      pop\n      jump\t// out\n        /* \"#utility.yul\":2909:3888   */\n    tag_9:\n        /* \"#utility.yul\":3006:3012   */\n      0x00\n        /* \"#utility.yul\":3014:3020   */\n      dup1\n        /* \"#utility.yul\":3022:3028   */\n      0x00\n        /* \"#utility.yul\":3071:3073   */\n      0x60\n        /* \"#utility.yul\":3059:3068   */\n      dup5\n        /* \"#utility.yul\":3050:3057   */\n      dup7\n        /* \"#utility.yul\":3046:3069   */\n      sub\n        /* \"#utility.yul\":3042:3074   */\n      slt\n        /* \"#utility.yul\":3039:3158   */\n      iszero\n      tag_161\n      jumpi\n        /* \"#utility.yul\":3077:3156   */\n      tag_162\n      tag_76\n      jump\t// in\n    tag_162:\n        /* \"#utility.yul\":3039:3158   */\n    tag_161:\n        /* \"#utility.yul\":3225:3226   */\n      0x00\n        /* \"#utility.yul\":3214:3223   */\n      dup5\n        /* \"#utility.yul\":3210:3227   */\n      add\n        /* \"#utility.yul\":3197:3228   */\n      calldataload\n        /* \"#utility.yul\":3255:3273   */\n      0xffffffffffffffff\n        /* \"#utility.yul\":3247:3253   */\n      dup2\n        /* \"#utility.yul\":3244:3274   */\n      gt\n        /* \"#utility.yul\":3241:3358   */\n      iszero\n      tag_163\n      jumpi\n        /* \"#utility.yul\":3277:3356   */\n      tag_164\n      tag_77\n      jump\t// in\n    tag_164:\n        /* \"#utility.yul\":3241:3358   */\n    tag_163:\n        /* \"#utility.yul\":3382:3445   */\n      tag_165\n        /* \"#utility.yul\":3437:3444   */\n      dup7\n        /* \"#utility.yul\":3428:3434   */\n      dup3\n        /* \"#utility.yul\":3417:3426   */\n      dup8\n        /* \"#utility.yul\":3413:3435   */\n      add\n        /* \"#utility.yul\":3382:3445   */\n      tag_87\n      jump\t// in\n    tag_165:\n        /* \"#utility.yul\":3372:3445   */\n      swap4\n      pop\n        /* \"#utility.yul\":3168:3455   */\n      pop\n        /* \"#utility.yul\":3522:3524   */\n      0x20\n        /* \"#utility.yul\":3511:3520   */\n      dup5\n        /* \"#utility.yul\":3507:3525   */\n      add\n        /* \"#utility.yul\":3494:3526   */\n      calldataload\n        /* \"#utility.yul\":3553:3571   */\n      0xffffffffffffffff\n        /* \"#utility.yul\":3545:3551   */\n      dup2\n        /* \"#utility.yul\":3542:3572   */\n      gt\n        /* \"#utility.yul\":3539:3656   */\n      iszero\n      tag_166\n      jumpi\n        /* \"#utility.yul\":3575:3654   */\n      tag_167\n      tag_77\n      jump\t// in\n    tag_167:\n        /* \"#utility.yul\":3539:3656   */\n    tag_166:\n        /* \"#utility.yul\":3680:3743   */\n      tag_168\n        /* \"#utility.yul\":3735:3742   */\n      dup7\n        /* \"#utility.yul\":3726:3732   */\n      dup3\n        /* \"#utility.yul\":3715:3724   */\n      dup8\n        /* \"#utility.yul\":3711:3733   */\n      add\n        /* \"#utility.yul\":3680:3743   */\n      tag_87\n      jump\t// in\n    tag_168:\n        /* \"#utility.yul\":3670:3743   */\n      swap3\n      pop\n        /* \"#utility.yul\":3465:3753   */\n      pop\n        /* \"#utility.yul\":3792:3794   */\n      0x40\n        /* \"#utility.yul\":3818:3871   */\n      tag_169\n        /* \"#utility.yul\":3863:3870   */\n      dup7\n        /* \"#utility.yul\":3854:3860   */\n      dup3\n        /* \"#utility.yul\":3843:3852   */\n      dup8\n        /* \"#utility.yul\":3839:3861   */\n      add\n        /* \"#utility.yul\":3818:3871   */\n      tag_90\n      jump\t// in\n    tag_169:\n        /* \"#utility.yul\":3808:3871   */\n      swap2\n      pop\n        /* \"#utility.yul\":3763:3881   */\n      pop\n        /* \"#utility.yul\":2909:3888   */\n      swap3\n      pop\n      swap3\n      pop\n      swap3\n      jump\t// out\n        /* \"#utility.yul\":3894:4223   */\n    tag_14:\n        /* \"#utility.yul\":3953:3959   */\n      0x00\n        /* \"#utility.yul\":4002:4004   */\n      0x20\n        /* \"#utility.yul\":3990:3999   */\n      dup3\n        /* \"#utility.yul\":3981:3988   */\n      dup5\n        /* \"#utility.yul\":3977:4000   */\n      sub\n        /* \"#utility.yul\":3973:4005   */\n      slt\n        /* \"#utility.yul\":3970:4089   */\n      iszero\n      tag_171\n      jumpi\n        /* \"#utility.yul\":4008:4087   */\n      tag_172\n      tag_76\n      jump\t// in\n    tag_172:\n        /* \"#utility.yul\":3970:4089   */\n    tag_171:\n        /* \"#utility.yul\":4128:4129   */\n      0x00\n        /* \"#utility.yul\":4153:4206   */\n      tag_173\n        /* \"#utility.yul\":4198:4205   */\n      dup5\n        /* \"#utility.yul\":4189:4195   */\n      dup3\n        /* \"#utility.yul\":4178:4187   */\n      dup6\n        /* \"#utility.yul\":4174:4196   */\n      add\n        /* \"#utility.yul\":4153:4206   */\n      tag_90\n      jump\t// in\n    tag_173:\n        /* \"#utility.yul\":4143:4206   */\n      swap2\n      pop\n        /* \"#utility.yul\":4099:4216   */\n      pop\n        /* \"#utility.yul\":3894:4223   */\n      swap3\n      swap2\n      pop\n      pop\n      jump\t// out\n        /* \"#utility.yul\":4229:4328   */\n    tag_91:\n        /* \"#utility.yul\":4281:4287   */\n      0x00\n        /* \"#utility.yul\":4315:4320   */\n      dup2\n        /* \"#utility.yul\":4309:4321   */\n      mload\n        /* \"#utility.yul\":4299:4321   */\n      swap1\n      pop\n        /* \"#utility.yul\":4229:4328   */\n      swap2\n      swap1\n      pop\n      jump\t// out\n        /* \"#utility.yul\":4334:4503   */\n    tag_92:\n        /* \"#utility.yul\":4418:4429   */\n      0x00\n        /* \"#utility.yul\":4452:4458   */\n      dup3\n        /* \"#utility.yul\":4447:4450   */\n      dup3\n        /* \"#utility.yul\":4440:4459   */\n      mstore\n        /* \"#utility.yul\":4492:4496   */\n      0x20\n        /* \"#utility.yul\":4487:4490   */\n      dup3\n        /* \"#utility.yul\":4483:4497   */\n      add\n        /* \"#utility.yul\":4468:4497   */\n      swap1\n      pop\n        /* \"#utility.yul\":4334:4503   */\n      swap3\n      swap2\n      pop\n      pop\n      jump\t// out\n        /* \"#utility.yul\":4509:4755   */\n    tag_93:\n        /* \"#utility.yul\":4590:4591   */\n      0x00\n        /* \"#utility.yul\":4600:4713   */\n    tag_177:\n        /* \"#utility.yul\":4614:4620   */\n      dup4\n        /* \"#utility.yul\":4611:4612   */\n      dup2\n        /* \"#utility.yul\":4608:4621   */\n      lt\n        /* \"#utility.yul\":4600:4713   */\n      iszero\n      tag_179\n      jumpi\n        /* \"#utility.yul\":4699:4700   */\n      dup1\n        /* \"#utility.yul\":4694:4697   */\n      dup3\n        /* \"#utility.yul\":4690:4701   */\n      add\n        /* \"#utility.yul\":4684:4702   */\n      mload\n        /* \"#utility.yul\":4680:4681   */\n      dup2\n        /* \"#utility.yul\":4675:4678   */\n      dup5\n        /* \"#utility.yul\":4671:4682   */\n      add\n        /* \"#utility.yul\":4664:4703   */\n      mstore\n        /* \"#utility.yul\":4636:4638   */\n      0x20\n        /* \"#utility.yul\":4633:4634   */\n      dup2\n        /* \"#utility.yul\":4629:4639   */\n      add\n        /* \"#utility.yul\":4624:4639   */\n      swap1\n      pop\n        /* \"#utility.yul\":4600:4713   */\n      jump(tag_177)\n    tag_179:\n        /* \"#utility.yul\":4747:4748   */\n      0x00\n        /* \"#utility.yul\":4738:4744   */\n      dup5\n        /* \"#utility.yul\":4733:4736   */\n      dup5\n        /* \"#utility.yul\":4729:4745   */\n      add\n        /* \"#utility.yul\":4722:4749   */\n      mstore\n        /* \"#utility.yul\":4571:4755   */\n      pop\n        /* \"#utility.yul\":4509:4755   */\n      pop\n      pop\n      pop\n      jump\t// out\n        /* \"#utility.yul\":4761:5138   */\n    tag_94:\n        /* \"#utility.yul\":4849:4852   */\n      0x00\n        /* \"#utility.yul\":4877:4916   */\n      tag_181\n        /* \"#utility.yul\":4910:4915   */\n      dup3\n        /* \"#utility.yul\":4877:4916   */\n      tag_91\n      jump\t// in\n    tag_181:\n        /* \"#utility.yul\":4932:5003   */\n      tag_182\n        /* \"#utility.yul\":4996:5002   */\n      dup2\n        /* \"#utility.yul\":4991:4994   */\n      dup6\n        /* \"#utility.yul\":4932:5003   */\n      tag_92\n      jump\t// in\n    tag_182:\n        /* \"#utility.yul\":4925:5003   */\n      swap4\n      pop\n        /* \"#utility.yul\":5012:5077   */\n      tag_183\n        /* \"#utility.yul\":5070:5076   */\n      dup2\n        /* \"#utility.yul\":5065:5068   */\n      dup6\n        /* \"#utility.yul\":5058:5062   */\n      0x20\n        /* \"#utility.yul\":5051:5056   */\n      dup7\n        /* \"#utility.yul\":5047:5063   */\n      add\n        /* \"#utility.yul\":5012:5077   */\n      tag_93\n      jump\t// in\n    tag_183:\n        /* \"#utility.yul\":5102:5131   */\n      tag_184\n        /* \"#utility.yul\":5124:5130   */\n      dup2\n        /* \"#utility.yul\":5102:5131   */\n      tag_80\n      jump\t// in\n    tag_184:\n        /* \"#utility.yul\":5097:5100   */\n      dup5\n        /* \"#utility.yul\":5093:5132   */\n      add\n        /* \"#utility.yul\":5086:5132   */\n      swap2\n      pop\n        /* \"#utility.yul\":4853:5138   */\n      pop\n        /* \"#utility.yul\":4761:5138   */\n      swap3\n      swap2\n      pop\n      pop\n      jump\t// out\n        /* \"#utility.yul\":5144:5270   */\n    tag_95:\n        /* \"#utility.yul\":5181:5188   */\n      0x00\n        /* \"#utility.yul\":5221:5263   */\n      0xffffffffffffffffffffffffffffffffffffffff\n        /* \"#utility.yul\":5214:5219   */\n      dup3\n        /* \"#utility.yul\":5210:5264   */\n      and\n        /* \"#utility.yul\":5199:5264   */\n      swap1\n      pop\n        /* \"#utility.yul\":5144:5270   */\n      swap2\n      swap1\n      pop\n      jump\t// out\n        /* \"#utility.yul\":5276:5380   */\n    tag_96:\n        /* \"#utility.yul\":5321:5328   */\n      0x00\n        /* \"#utility.yul\":5350:5374   */\n      tag_187\n        /* \"#utility.yul\":5368:5373   */\n      dup3\n        /* \"#utility.yul\":5350:5374   */\n      tag_95\n      jump\t// in\n    tag_187:\n        /* \"#utility.yul\":5339:5374   */\n      swap1\n      pop\n        /* \"#utility.yul\":5276:5380   */\n      swap2\n      swap1\n      pop\n      jump\t// out\n        /* \"#utility.yul\":5386:5528   */\n    tag_97:\n        /* \"#utility.yul\":5489:5521   */\n      tag_189\n        /* \"#utility.yul\":5515:5520   */\n      dup2\n        /* \"#utility.yul\":5489:5521   */\n      tag_96\n      jump\t// in\n    tag_189:\n        /* \"#utility.yul\":5484:5487   */\n      dup3\n        /* \"#utility.yul\":5477:5522   */\n      mstore\n        /* \"#utility.yul\":5386:5528   */\n      pop\n      pop\n      jump\t// out\n        /* \"#utility.yul\":5534:5652   */\n    tag_98:\n        /* \"#utility.yul\":5621:5645   */\n      tag_191\n        /* \"#utility.yul\":5639:5644   */\n      dup2\n        /* \"#utility.yul\":5621:5645   */\n      tag_88\n      jump\t// in\n    tag_191:\n        /* \"#utility.yul\":5616:5619   */\n      dup3\n        /* \"#utility.yul\":5609:5646   */\n      mstore\n        /* \"#utility.yul\":5534:5652   */\n      pop\n      pop\n      jump\t// out\n        /* \"#utility.yul\":5658:5754   */\n    tag_99:\n        /* \"#utility.yul\":5695:5702   */\n      0x00\n        /* \"#utility.yul\":5724:5748   */\n      tag_193\n        /* \"#utility.yul\":5742:5747   */\n      dup3\n        /* \"#utility.yul\":5724:5748   */\n      tag_95\n      jump\t// in\n    tag_193:\n        /* \"#utility.yul\":5713:5748   */\n      swap1\n      pop\n        /* \"#utility.yul\":5658:5754   */\n      swap2\n      swap1\n      pop\n      jump\t// out\n        /* \"#utility.yul\":5760:5878   */\n    tag_100:\n        /* \"#utility.yul\":5847:5871   */\n      tag_195\n        /* \"#utility.yul\":5865:5870   */\n      dup2\n        /* \"#utility.yul\":5847:5871   */\n      tag_99\n      jump\t// in\n    tag_195:\n        /* \"#utility.yul\":5842:5845   */\n      dup3\n        /* \"#utility.yul\":5835:5872   */\n      mstore\n        /* \"#utility.yul\":5760:5878   */\n      pop\n      pop\n      jump\t// out\n        /* \"#utility.yul\":5884:5974   */\n    tag_101:\n        /* \"#utility.yul\":5918:5925   */\n      0x00\n        /* \"#utility.yul\":5961:5966   */\n      dup2\n        /* \"#utility.yul\":5954:5967   */\n      iszero\n        /* \"#utility.yul\":5947:5968   */\n      iszero\n        /* \"#utility.yul\":5936:5968   */\n      swap1\n      pop\n        /* \"#utility.yul\":5884:5974   */\n      swap2\n      swap1\n      pop\n      jump\t// out\n        /* \"#utility.yul\":5980:6089   */\n    tag_102:\n        /* \"#utility.yul\":6061:6082   */\n      tag_198\n        /* \"#utility.yul\":6076:6081   */\n      dup2\n        /* \"#utility.yul\":6061:6082   */\n      tag_101\n      jump\t// in\n    tag_198:\n        /* \"#utility.yul\":6056:6059   */\n      dup3\n        /* \"#utility.yul\":6049:6083   */\n      mstore\n        /* \"#utility.yul\":5980:6089   */\n      pop\n      pop\n      jump\t// out\n        /* \"#utility.yul\":6095:7183   */\n    tag_17:\n        /* \"#utility.yul\":6406:6410   */\n      0x00\n        /* \"#utility.yul\":6444:6447   */\n      0xe0\n        /* \"#utility.yul\":6433:6442   */\n      dup3\n        /* \"#utility.yul\":6429:6448   */\n      add\n        /* \"#utility.yul\":6421:6448   */\n      swap1\n      pop\n        /* \"#utility.yul\":6494:6503   */\n      dup2\n        /* \"#utility.yul\":6488:6492   */\n      dup2\n        /* \"#utility.yul\":6484:6504   */\n      sub\n        /* \"#utility.yul\":6480:6481   */\n      0x00\n        /* \"#utility.yul\":6469:6478   */\n      dup4\n        /* \"#utility.yul\":6465:6482   */\n      add\n        /* \"#utility.yul\":6458:6505   */\n      mstore\n        /* \"#utility.yul\":6522:6600   */\n      tag_200\n        /* \"#utility.yul\":6595:6599   */\n      dup2\n        /* \"#utility.yul\":6586:6592   */\n      dup11\n        /* \"#utility.yul\":6522:6600   */\n      tag_94\n      jump\t// in\n    tag_200:\n        /* \"#utility.yul\":6514:6600   */\n      swap1\n      pop\n        /* \"#utility.yul\":6647:6656   */\n      dup2\n        /* \"#utility.yul\":6641:6645   */\n      dup2\n        /* \"#utility.yul\":6637:6657   */\n      sub\n        /* \"#utility.yul\":6632:6634   */\n      0x20\n        /* \"#utility.yul\":6621:6630   */\n      dup4\n        /* \"#utility.yul\":6617:6635   */\n      add\n        /* \"#utility.yul\":6610:6658   */\n      mstore\n        /* \"#utility.yul\":6675:6753   */\n      tag_201\n        /* \"#utility.yul\":6748:6752   */\n      dup2\n        /* \"#utility.yul\":6739:6745   */\n      dup10\n        /* \"#utility.yul\":6675:6753   */\n      tag_94\n      jump\t// in\n    tag_201:\n        /* \"#utility.yul\":6667:6753   */\n      swap1\n      pop\n        /* \"#utility.yul\":6763:6851   */\n      tag_202\n        /* \"#utility.yul\":6847:6849   */\n      0x40\n        /* \"#utility.yul\":6836:6845   */\n      dup4\n        /* \"#utility.yul\":6832:6850   */\n      add\n        /* \"#utility.yul\":6823:6829   */\n      dup9\n        /* \"#utility.yul\":6763:6851   */\n      tag_97\n      jump\t// in\n    tag_202:\n        /* \"#utility.yul\":6861:6933   */\n      tag_203\n        /* \"#utility.yul\":6929:6931   */\n      0x60\n        /* \"#utility.yul\":6918:6927   */\n      dup4\n        /* \"#utility.yul\":6914:6932   */\n      add\n        /* \"#utility.yul\":6905:6911   */\n      dup8\n        /* \"#utility.yul\":6861:6933   */\n      tag_98\n      jump\t// in\n    tag_203:\n        /* \"#utility.yul\":6943:7016   */\n      tag_204\n        /* \"#utility.yul\":7011:7014   */\n      0x80\n        /* \"#utility.yul\":7000:7009   */\n      dup4\n        /* \"#utility.yul\":6996:7015   */\n      add\n        /* \"#utility.yul\":6987:6993   */\n      dup7\n        /* \"#utility.yul\":6943:7016   */\n      tag_98\n      jump\t// in\n    tag_204:\n        /* \"#utility.yul\":7026:7099   */\n      tag_205\n        /* \"#utility.yul\":7094:7097   */\n      0xa0\n        /* \"#utility.yul\":7083:7092   */\n      dup4\n        /* \"#utility.yul\":7079:7098   */\n      add\n        /* \"#utility.yul\":7070:7076   */\n      dup6\n        /* \"#utility.yul\":7026:7099   */\n      tag_100\n      jump\t// in\n    tag_205:\n        /* \"#utility.yul\":7109:7176   */\n      tag_206\n        /* \"#utility.yul\":7171:7174   */\n      0xc0\n        /* \"#utility.yul\":7160:7169   */\n      dup4\n        /* \"#utility.yul\":7156:7175   */\n      add\n        /* \"#utility.yul\":7147:7153   */\n      dup5\n        /* \"#utility.yul\":7109:7176   */\n      tag_102\n      jump\t// in\n    tag_206:\n        /* \"#utility.yul\":6095:7183   */\n      swap9\n      swap8\n      pop\n      pop\n      pop\n      pop\n      pop\n      pop\n      pop\n      pop\n      jump\t// out\n        /* \"#utility.yul\":7189:7411   */\n    tag_22:\n        /* \"#utility.yul\":7282:7286   */\n      0x00\n        /* \"#utility.yul\":7320:7322   */\n      0x20\n        /* \"#utility.yul\":7309:7318   */\n      dup3\n        /* \"#utility.yul\":7305:7323   */\n      add\n        /* \"#utility.yul\":7297:7323   */\n      swap1\n      pop\n        /* \"#utility.yul\":7333:7404   */\n      tag_208\n        /* \"#utility.yul\":7401:7402   */\n      0x00\n        /* \"#utility.yul\":7390:7399   */\n      dup4\n        /* \"#utility.yul\":7386:7403   */\n      add\n        /* \"#utility.yul\":7377:7383   */\n      dup5\n        /* \"#utility.yul\":7333:7404   */\n      tag_100\n      jump\t// in\n    tag_208:\n        /* \"#utility.yul\":7189:7411   */\n      swap3\n      swap2\n      pop\n      pop\n      jump\t// out\n        /* \"#utility.yul\":7417:7597   */\n    tag_103:\n        /* \"#utility.yul\":7465:7542   */\n      0x4e487b7100000000000000000000000000000000000000000000000000000000\n        /* \"#utility.yul\":7462:7463   */\n      0x00\n        /* \"#utility.yul\":7455:7543   */\n      mstore\n        /* \"#utility.yul\":7562:7566   */\n      0x11\n        /* \"#utility.yul\":7559:7560   */\n      0x04\n        /* \"#utility.yul\":7552:7567   */\n      mstore\n        /* \"#utility.yul\":7586:7590   */\n      0x24\n        /* \"#utility.yul\":7583:7584   */\n      0x00\n        /* \"#utility.yul\":7576:7591   */\n      revert\n        /* \"#utility.yul\":7603:8013   */\n    tag_30:\n        /* \"#utility.yul\":7643:7650   */\n      0x00\n        /* \"#utility.yul\":7666:7686   */\n      tag_211\n        /* \"#utility.yul\":7684:7685   */\n      dup3\n        /* \"#utility.yul\":7666:7686   */\n      tag_88\n      jump\t// in\n    tag_211:\n        /* \"#utility.yul\":7661:7686   */\n      swap2\n      pop\n        /* \"#utility.yul\":7700:7720   */\n      tag_212\n        /* \"#utility.yul\":7718:7719   */\n      dup4\n        /* \"#utility.yul\":7700:7720   */\n      tag_88\n      jump\t// in\n    tag_212:\n        /* \"#utility.yul\":7695:7720   */\n      swap3\n      pop\n        /* \"#utility.yul\":7755:7756   */\n      dup3\n        /* \"#utility.yul\":7752:7753   */\n      dup3\n        /* \"#utility.yul\":7748:7757   */\n      mul\n        /* \"#utility.yul\":7777:7807   */\n      tag_213\n        /* \"#utility.yul\":7795:7806   */\n      dup2\n        /* \"#utility.yul\":7777:7807   */\n      tag_88\n      jump\t// in\n    tag_213:\n        /* \"#utility.yul\":7766:7807   */\n      swap2\n      pop\n        /* \"#utility.yul\":7956:7957   */\n      dup3\n        /* \"#utility.yul\":7947:7954   */\n      dup3\n        /* \"#utility.yul\":7943:7958   */\n      div\n        /* \"#utility.yul\":7940:7941   */\n      dup5\n        /* \"#utility.yul\":7937:7959   */\n      eq\n        /* \"#utility.yul\":7917:7918   */\n      dup4\n        /* \"#utility.yul\":7910:7919   */\n      iszero\n        /* \"#utility.yul\":7890:7973   */\n      or\n        /* \"#utility.yul\":7867:8006   */\n      tag_214\n      jumpi\n        /* \"#utility.yul\":7986:8004   */\n      tag_215\n      tag_103\n      jump\t// in\n    tag_215:\n        /* \"#utility.yul\":7867:8006   */\n    tag_214:\n        /* \"#utility.yul\":7651:8013   */\n      pop\n        /* \"#utility.yul\":7603:8013   */\n      swap3\n      swap2\n      pop\n      pop\n      jump\t// out\n        /* \"#utility.yul\":8019:8199   */\n    tag_104:\n        /* \"#utility.yul\":8067:8144   */\n      0x4e487b7100000000000000000000000000000000000000000000000000000000\n        /* \"#utility.yul\":8064:8065   */\n      0x00\n        /* \"#utility.yul\":8057:8145   */\n      mstore\n        /* \"#utility.yul\":8164:8168   */\n      0x22\n        /* \"#utility.yul\":8161:8162   */\n      0x04\n        /* \"#utility.yul\":8154:8169   */\n      mstore\n        /* \"#utility.yul\":8188:8192   */\n      0x24\n        /* \"#utility.yul\":8185:8186   */\n      0x00\n        /* \"#utility.yul\":8178:8193   */\n      revert\n        /* \"#utility.yul\":8205:8525   */\n    tag_42:\n        /* \"#utility.yul\":8249:8255   */\n      0x00\n        /* \"#utility.yul\":8286:8287   */\n      0x02\n        /* \"#utility.yul\":8280:8284   */\n      dup3\n        /* \"#utility.yul\":8276:8288   */\n      div\n        /* \"#utility.yul\":8266:8288   */\n      swap1\n      pop\n        /* \"#utility.yul\":8333:8334   */\n      0x01\n        /* \"#utility.yul\":8327:8331   */\n      dup3\n        /* \"#utility.yul\":8323:8335   */\n      and\n        /* \"#utility.yul\":8354:8372   */\n      dup1\n        /* \"#utility.yul\":8344:8425   */\n      tag_218\n      jumpi\n        /* \"#utility.yul\":8410:8414   */\n      0x7f\n        /* \"#utility.yul\":8402:8408   */\n      dup3\n        /* \"#utility.yul\":8398:8415   */\n      and\n        /* \"#utility.yul\":8388:8415   */\n      swap2\n      pop\n        /* \"#utility.yul\":8344:8425   */\n    tag_218:\n        /* \"#utility.yul\":8472:8474   */\n      0x20\n        /* \"#utility.yul\":8464:8470   */\n      dup3\n        /* \"#utility.yul\":8461:8475   */\n      lt\n        /* \"#utility.yul\":8441:8459   */\n      dup2\n        /* \"#utility.yul\":8438:8476   */\n      sub\n        /* \"#utility.yul\":8435:8519   */\n      tag_219\n      jumpi\n        /* \"#utility.yul\":8491:8509   */\n      tag_220\n      tag_104\n      jump\t// in\n    tag_220:\n        /* \"#utility.yul\":8435:8519   */\n    tag_219:\n        /* \"#utility.yul\":8256:8525   */\n      pop\n        /* \"#utility.yul\":8205:8525   */\n      swap2\n      swap1\n      pop\n      jump\t// out\n        /* \"#utility.yul\":8531:8672   */\n    tag_105:\n        /* \"#utility.yul\":8580:8584   */\n      0x00\n        /* \"#utility.yul\":8603:8606   */\n      dup2\n        /* \"#utility.yul\":8595:8606   */\n      swap1\n      pop\n        /* \"#utility.yul\":8626:8629   */\n      dup2\n        /* \"#utility.yul\":8623:8624   */\n      0x00\n        /* \"#utility.yul\":8616:8630   */\n      mstore\n        /* \"#utility.yul\":8660:8664   */\n      0x20\n        /* \"#utility.yul\":8657:8658   */\n      0x00\n        /* \"#utility.yul\":8647:8665   */\n      keccak256\n        /* \"#utility.yul\":8639:8665   */\n      swap1\n      pop\n        /* \"#utility.yul\":8531:8672   */\n      swap2\n      swap1\n      pop\n      jump\t// out\n        /* \"#utility.yul\":8678:8771   */\n    tag_106:\n        /* \"#utility.yul\":8715:8721   */\n      0x00\n        /* \"#utility.yul\":8762:8764   */\n      0x20\n        /* \"#utility.yul\":8757:8759   */\n      0x1f\n        /* \"#utility.yul\":8750:8755   */\n      dup4\n        /* \"#utility.yul\":8746:8760   */\n      add\n        /* \"#utility.yul\":8742:8765   */\n      div\n        /* \"#utility.yul\":8732:8765   */\n      swap1\n      pop\n        /* \"#utility.yul\":8678:8771   */\n      swap2\n      swap1\n      pop\n      jump\t// out\n        /* \"#utility.yul\":8777:8884   */\n    tag_107:\n        /* \"#utility.yul\":8821:8829   */\n      0x00\n        /* \"#utility.yul\":8871:8876   */\n      dup3\n        /* \"#utility.yul\":8865:8869   */\n      dup3\n        /* \"#utility.yul\":8861:8877   */\n      shl\n        /* \"#utility.yul\":8840:8877   */\n      swap1\n      pop\n        /* \"#utility.yul\":8777:8884   */\n      swap3\n      swap2\n      pop\n      pop\n      jump\t// out\n        /* \"#utility.yul\":8890:9283   */\n    tag_108:\n        /* \"#utility.yul\":8959:8965   */\n      0x00\n        /* \"#utility.yul\":9009:9010   */\n      0x08\n        /* \"#utility.yul\":8997:9007   */\n      dup4\n        /* \"#utility.yul\":8993:9011   */\n      mul\n        /* \"#utility.yul\":9032:9129   */\n      tag_225\n        /* \"#utility.yul\":9062:9128   */\n      0xffffffffffffffffffffffffffffffffffffffffffffffffffffffffffffffff\n        /* \"#utility.yul\":9051:9060   */\n      dup3\n        /* \"#utility.yul\":9032:9129   */\n      tag_107\n      jump\t// in\n    tag_225:\n        /* \"#utility.yul\":9150:9189   */\n      tag_226\n        /* \"#utility.yul\":9180:9188   */\n      dup7\n        /* \"#utility.yul\":9169:9178   */\n      dup4\n        /* \"#utility.yul\":9150:9189   */\n      tag_107\n      jump\t// in\n    tag_226:\n        /* \"#utility.yul\":9138:9189   */\n      swap6\n      pop\n        /* \"#utility.yul\":9222:9226   */\n      dup1\n        /* \"#utility.yul\":9218:9227   */\n      not\n        /* \"#utility.yul\":9211:9216   */\n      dup5\n        /* \"#utility.yul\":9207:9228   */\n      and\n        /* \"#utility.yul\":9198:9228   */\n      swap4\n      pop\n        /* \"#utility.yul\":9271:9275   */\n      dup1\n        /* \"#utility.yul\":9261:9269   */\n      dup7\n        /* \"#utility.yul\":9257:9276   */\n      and\n        /* \"#utility.yul\":9250:9255   */\n      dup5\n        /* \"#utility.yul\":9247:9277   */\n      or\n        /* \"#utility.yul\":9237:9277   */\n      swap3\n      pop\n        /* \"#utility.yul\":8966:9283   */\n      pop\n      pop\n        /* \"#utility.yul\":8890:9283   */\n      swap4\n      swap3\n      pop\n      pop\n      pop\n      jump\t// out\n        /* \"#utility.yul\":9289:9349   */\n    tag_109:\n        /* \"#utility.yul\":9317:9320   */\n      0x00\n        /* \"#utility.yul\":9338:9343   */\n      dup2\n        /* \"#utility.yul\":9331:9343   */\n      swap1\n      pop\n        /* \"#utility.yul\":9289:9349   */\n      swap2\n      swap1\n      pop\n      jump\t// out\n        /* \"#utility.yul\":9355:9497   */\n    tag_110:\n        /* \"#utility.yul\":9405:9414   */\n      0x00\n        /* \"#utility.yul\":9438:9491   */\n      tag_229\n        /* \"#utility.yul\":9456:9490   */\n      tag_230\n        /* \"#utility.yul\":9465:9489   */\n      tag_231\n        /* \"#utility.yul\":9483:9488   */\n      dup5\n        /* \"#utility.yul\":9465:9489   */\n      tag_88\n      jump\t// in\n    tag_231:\n        /* \"#utility.yul\":9456:9490   */\n      tag_109\n      jump\t// in\n    tag_230:\n        /* \"#utility.yul\":9438:9491   */\n      tag_88\n      jump\t// in\n    tag_229:\n        /* \"#utility.yul\":9425:9491   */\n      swap1\n      pop\n        /* \"#utility.yul\":9355:9497   */\n      swap2\n      swap1\n      pop\n      jump\t// out\n        /* \"#utility.yul\":9503:9578   */\n    tag_111:\n        /* \"#utility.yul\":9546:9549   */\n      0x00\n        /* \"#utility.yul\":9567:9572   */\n      dup2\n        /* \"#utility.yul\":9560:9572   */\n      swap1\n      pop\n        /* \"#utility.yul\":9503:9578   */\n      swap2\n      swap1\n      pop\n      jump\t// out\n        /* \"#utility.yul\":9584:9853   */\n    tag_112:\n        /* \"#utility.yul\":9694:9733   */\n      tag_234\n        /* \"#utility.yul\":9725:9732   */\n      dup4\n        /* \"#utility.yul\":9694:9733   */\n      tag_110\n      jump\t// in\n    tag_234:\n        /* \"#utility.yul\":9755:9846   */\n      tag_235\n        /* \"#utility.yul\":9804:9845   */\n      tag_236\n        /* \"#utility.yul\":9828:9844   */\n      dup3\n        /* \"#utility.yul\":9804:9845   */\n      tag_111\n      jump\t// in\n    tag_236:\n        /* \"#utility.yul\":9796:9802   */\n      dup5\n        /* \"#utility.yul\":9789:9793   */\n      dup5\n        /* \"#utility.yul\":9783:9794   */\n      sload\n        /* \"#utility.yul\":9755:9846   */\n      tag_108\n      jump\t// in\n    tag_235:\n        /* \"#utility.yul\":9749:9753   */\n      dup3\n        /* \"#utility.yul\":9742:9847   */\n      sstore\n        /* \"#utility.yul\":9660:9853   */\n      pop\n        /* \"#utility.yul\":9584:9853   */\n      pop\n      pop\n      pop\n      jump\t// out\n        /* \"#utility.yul\":9859:9932   */\n    tag_113:\n        /* \"#utility.yul\":9904:9907   */\n      0x00\n        /* \"#utility.yul\":9859:9932   */\n      swap1\n      jump\t// out\n        /* \"#utility.yul\":9938:10127   */\n    tag_114:\n        /* \"#utility.yul\":10015:10047   */\n      tag_239\n      tag_113\n      jump\t// in\n    tag_239:\n        /* \"#utility.yul\":10056:10121   */\n      tag_240\n        /* \"#utility.yul\":10114:10120   */\n      dup2\n        /* \"#utility.yul\":10106:10112   */\n      dup5\n        /* \"#utility.yul\":10100:10104   */\n      dup5\n        /* \"#utility.yul\":10056:10121   */\n      tag_112\n      jump\t// in\n    tag_240:\n        /* \"#utility.yul\":9991:10127   */\n      pop\n        /* \"#utility.yul\":9938:10127   */\n      pop\n      pop\n      jump\t// out\n        /* \"#utility.yul\":10133:10319   */\n    tag_115:\n        /* \"#utility.yul\":10193:10313   */\n    tag_242:\n        /* \"#utility.yul\":10210:10213   */\n      dup2\n        /* \"#utility.yul\":10203:10208   */\n      dup2\n        /* \"#utility.yul\":10200:10214   */\n      lt\n        /* \"#utility.yul\":10193:10313   */\n      iszero\n      tag_244\n      jumpi\n        /* \"#utility.yul\":10264:10303   */\n      tag_245\n        /* \"#utility.yul\":10301:10302   */\n      0x00\n        /* \"#utility.yul\":10294:10299   */\n      dup3\n        /* \"#utility.yul\":10264:10303   */\n      tag_114\n      jump\t// in\n    tag_245:\n        /* \"#utility.yul\":10237:10238   */\n      0x01\n        /* \"#utility.yul\":10230:10235   */\n      dup2\n        /* \"#utility.yul\":10226:10239   */\n      add\n        /* \"#utility.yul\":10217:10239   */\n      swap1\n      pop\n        /* \"#utility.yul\":10193:10313   */\n      jump(tag_242)\n    tag_244:\n        /* \"#utility.yul\":10133:10319   */\n      pop\n      pop\n      jump\t// out\n        /* \"#utility.yul\":10325:10868   */\n    tag_116:\n        /* \"#utility.yul\":10426:10428   */\n      0x1f\n        /* \"#utility.yul\":10421:10424   */\n      dup3\n        /* \"#utility.yul\":10418:10429   */\n      gt\n        /* \"#utility.yul\":10415:10861   */\n      iszero\n      tag_247\n      jumpi\n        /* \"#utility.yul\":10460:10498   */\n      tag_248\n        /* \"#utility.yul\":10492:10497   */\n      dup2\n        /* \"#utility.yul\":10460:10498   */\n      tag_105\n      jump\t// in\n    tag_248:\n        /* \"#utility.yul\":10544:10573   */\n      tag_249\n        /* \"#utility.yul\":10562:10572   */\n      dup5\n        /* \"#utility.yul\":10544:10573   */\n      tag_106\n      jump\t// in\n    tag_249:\n        /* \"#utility.yul\":10534:10542   */\n      dup2\n        /* \"#utility.yul\":10530:10574   */\n      add\n        /* \"#utility.yul\":10727:10729   */\n      0x20\n        /* \"#utility.yul\":10715:10725   */\n      dup6\n        /* \"#utility.yul\":10712:10730   */\n      lt\n        /* \"#utility.yul\":10709:10758   */\n      iszero\n      tag_250\n      jumpi\n        /* \"#utility.yul\":10748:10756   */\n      dup2\n        /* \"#utility.yul\":10733:10756   */\n      swap1\n      pop\n        /* \"#utility.yul\":10709:10758   */\n    tag_250:\n        /* \"#utility.yul\":10771:10851   */\n      tag_251\n        /* \"#utility.yul\":10827:10849   */\n      tag_252\n        /* \"#utility.yul\":10845:10848   */\n      dup6\n        /* \"#utility.yul\":10827:10849   */\n      tag_106\n      jump\t// in\n    tag_252:\n        /* \"#utility.yul\":10817:10825   */\n      dup4\n        /* \"#utility.yul\":10813:10850   */\n      add\n        /* \"#utility.yul\":10800:10811   */\n      dup3\n        /* \"#utility.yul\":10771:10851   */\n      tag_115\n      jump\t// in\n    tag_251:\n        /* \"#utility.yul\":10430:10861   */\n      pop\n      pop\n        /* \"#utility.yul\":10415:10861   */\n    tag_247:\n        /* \"#utility.yul\":10325:10868   */\n      pop\n      pop\n      pop\n      jump\t// out\n        /* \"#utility.yul\":10874:10991   */\n    tag_117:\n        /* \"#utility.yul\":10928:10936   */\n      0x00\n        /* \"#utility.yul\":10978:10983   */\n      dup3\n        /* \"#utility.yul\":10972:10976   */\n      dup3\n        /* \"#utility.yul\":10968:10984   */\n      shr\n        /* \"#utility.yul\":10947:10984   */\n      swap1\n      pop\n        /* \"#utility.yul\":10874:10991   */\n      swap3\n      swap2\n      pop\n      pop\n      jump\t// out\n        /* \"#utility.yul\":10997:11166   */\n    tag_118:\n        /* \"#utility.yul\":11041:11047   */\n      0x00\n        /* \"#utility.yul\":11074:11125   */\n      tag_255\n        /* \"#utility.yul\":11122:11123   */\n      0x00\n        /* \"#utility.yul\":11118:11124   */\n      not\n        /* \"#utility.yul\":11110:11115   */\n      dup5\n        /* \"#utility.yul\":11107:11108   */\n      0x08\n        /* \"#utility.yul\":11103:11116   */\n      mul\n        /* \"#utility.yul\":11074:11125   */\n      tag_117\n      jump\t// in\n    tag_255:\n        /* \"#utility.yul\":11070:11126   */\n      not\n        /* \"#utility.yul\":11155:11159   */\n      dup1\n        /* \"#utility.yul\":11149:11153   */\n      dup4\n        /* \"#utility.yul\":11145:11160   */\n      and\n        /* \"#utility.yul\":11135:11160   */\n      swap2\n      pop\n        /* \"#utility.yul\":11048:11166   */\n      pop\n        /* \"#utility.yul\":10997:11166   */\n      swap3\n      swap2\n      pop\n      pop\n      jump\t// out\n        /* \"#utility.yul\":11171:11466   */\n    tag_119:\n        /* \"#utility.yul\":11247:11251   */\n      0x00\n        /* \"#utility.yul\":11393:11422   */\n      tag_257\n        /* \"#utility.yul\":11418:11421   */\n      dup4\n        /* \"#utility.yul\":11412:11416   */\n      dup4\n        /* \"#utility.yul\":11393:11422   */\n      tag_118\n      jump\t// in\n    tag_257:\n        /* \"#utility.yul\":11385:11422   */\n      swap2\n      pop\n        /* \"#utility.yul\":11455:11458   */\n      dup3\n        /* \"#utility.yul\":11452:11453   */\n      0x02\n        /* \"#utility.yul\":11448:11459   */\n      mul\n        /* \"#utility.yul\":11442:11446   */\n      dup3\n        /* \"#utility.yul\":11439:11460   */\n      or\n        /* \"#utility.yul\":11431:11460   */\n      swap1\n      pop\n        /* \"#utility.yul\":11171:11466   */\n      swap3\n      swap2\n      pop\n      pop\n      jump\t// out\n        /* \"#utility.yul\":11471:12866   */\n    tag_33:\n        /* \"#utility.yul\":11588:11625   */\n      tag_259\n        /* \"#utility.yul\":11621:11624   */\n      dup3\n        /* \"#utility.yul\":11588:11625   */\n      tag_91\n      jump\t// in\n    tag_259:\n        /* \"#utility.yul\":11690:11708   */\n      0xffffffffffffffff\n        /* \"#utility.yul\":11682:11688   */\n      dup2\n        /* \"#utility.yul\":11679:11709   */\n      gt\n        /* \"#utility.yul\":11676:11732   */\n      iszero\n      tag_260\n      jumpi\n        /* \"#utility.yul\":11712:11730   */\n      tag_261\n      tag_81\n      jump\t// in\n    tag_261:\n        /* \"#utility.yul\":11676:11732   */\n    tag_260:\n        /* \"#utility.yul\":11756:11794   */\n      tag_262\n        /* \"#utility.yul\":11788:11792   */\n      dup3\n        /* \"#utility.yul\":11782:11793   */\n      sload\n        /* \"#utility.yul\":11756:11794   */\n      tag_42\n      jump\t// in\n    tag_262:\n        /* \"#utility.yul\":11841:11908   */\n      tag_263\n        /* \"#utility.yul\":11901:11907   */\n      dup3\n        /* \"#utility.yul\":11893:11899   */\n      dup3\n        /* \"#utility.yul\":11887:11891   */\n      dup6\n        /* \"#utility.yul\":11841:11908   */\n      tag_116\n      jump\t// in\n    tag_263:\n        /* \"#utility.yul\":11935:11936   */\n      0x00\n        /* \"#utility.yul\":11959:11963   */\n      0x20\n        /* \"#utility.yul\":11946:11963   */\n      swap1\n      pop\n        /* \"#utility.yul\":11991:11993   */\n      0x1f\n        /* \"#utility.yul\":11983:11989   */\n      dup4\n        /* \"#utility.yul\":11980:11994   */\n      gt\n        /* \"#utility.yul\":12008:12009   */\n      0x01\n        /* \"#utility.yul\":12003:12621   */\n      dup2\n      eq\n      tag_265\n      jumpi\n        /* \"#utility.yul\":12665:12666   */\n      0x00\n        /* \"#utility.yul\":12682:12688   */\n      dup5\n        /* \"#utility.yul\":12679:12756   */\n      iszero\n      tag_266\n      jumpi\n        /* \"#utility.yul\":12731:12740   */\n      dup3\n        /* \"#utility.yul\":12726:12729   */\n      dup8\n        /* \"#utility.yul\":12722:12741   */\n      add\n        /* \"#utility.yul\":12716:12742   */\n      mload\n        /* \"#utility.yul\":12707:12742   */\n      swap1\n      pop\n        /* \"#utility.yul\":12679:12756   */\n    tag_266:\n        /* \"#utility.yul\":12782:12849   */\n      tag_267\n        /* \"#utility.yul\":12842:12848   */\n      dup6\n        /* \"#utility.yul\":12835:12840   */\n      dup3\n        /* \"#utility.yul\":12782:12849   */\n      tag_119\n      jump\t// in\n    tag_267:\n        /* \"#utility.yul\":12776:12780   */\n      dup7\n        /* \"#utility.yul\":12769:12850   */\n      sstore\n        /* \"#utility.yul\":12638:12860   */\n      pop\n        /* \"#utility.yul\":11973:12860   */\n      jump(tag_264)\n        /* \"#utility.yul\":12003:12621   */\n    tag_265:\n        /* \"#utility.yul\":12055:12059   */\n      0x1f\n        /* \"#utility.yul\":12051:12060   */\n      not\n        /* \"#utility.yul\":12043:12049   */\n      dup5\n        /* \"#utility.yul\":12039:12061   */\n      and\n        /* \"#utility.yul\":12089:12126   */\n      tag_268\n        /* \"#utility.yul\":12121:12125   */\n      dup7\n        /* \"#utility.yul\":12089:12126   */\n      tag_105\n      jump\t// in\n    tag_268:\n        /* \"#utility.yul\":12148:12149   */\n      0x00\n        /* \"#utility.yul\":12162:12370   */\n    tag_269:\n        /* \"#utility.yul\":12176:12183   */\n      dup3\n        /* \"#utility.yul\":12173:12174   */\n      dup2\n        /* \"#utility.yul\":12170:12184   */\n      lt\n        /* \"#utility.yul\":12162:12370   */\n      iszero\n      tag_271\n      jumpi\n        /* \"#utility.yul\":12255:12264   */\n      dup5\n        /* \"#utility.yul\":12250:12253   */\n      dup10\n        /* \"#utility.yul\":12246:12265   */\n      add\n        /* \"#utility.yul\":12240:12266   */\n      mload\n        /* \"#utility.yul\":12232:12238   */\n      dup3\n        /* \"#utility.yul\":12225:12267   */\n      sstore\n        /* \"#utility.yul\":12306:12307   */\n      0x01\n        /* \"#utility.yul\":12298:12304   */\n      dup3\n        /* \"#utility.yul\":12294:12308   */\n      add\n        /* \"#utility.yul\":12284:12308   */\n      swap2\n      pop\n        /* \"#utility.yul\":12353:12355   */\n      0x20\n        /* \"#utility.yul\":12342:12351   */\n      dup6\n        /* \"#utility.yul\":12338:12356   */\n      add\n        /* \"#utility.yul\":12325:12356   */\n      swap5\n      pop\n        /* \"#utility.yul\":12199:12203   */\n      0x20\n        /* \"#utility.yul\":12196:12197   */\n      dup2\n        /* \"#utility.yul\":12192:12204   */\n      add\n        /* \"#utility.yul\":12187:12204   */\n      swap1\n      pop\n        /* \"#utility.yul\":12162:12370   */\n      jump(tag_269)\n    tag_271:\n        /* \"#utility.yul\":12398:12404   */\n      dup7\n        /* \"#utility.yul\":12389:12396   */\n      dup4\n        /* \"#utility.yul\":12386:12405   */\n      lt\n        /* \"#utility.yul\":12383:12562   */\n      iszero\n      tag_272\n      jumpi\n        /* \"#utility.yul\":12456:12465   */\n      dup5\n        /* \"#utility.yul\":12451:12454   */\n      dup10\n        /* \"#utility.yul\":12447:12466   */\n      add\n        /* \"#utility.yul\":12441:12467   */\n      mload\n        /* \"#utility.yul\":12499:12547   */\n      tag_273\n        /* \"#utility.yul\":12541:12545   */\n      0x1f\n        /* \"#utility.yul\":12533:12539   */\n      dup10\n        /* \"#utility.yul\":12529:12546   */\n      and\n        /* \"#utility.yul\":12518:12527   */\n      dup3\n        /* \"#utility.yul\":12499:12547   */\n      tag_118\n      jump\t// in\n    tag_273:\n        /* \"#utility.yul\":12491:12497   */\n      dup4\n        /* \"#utility.yul\":12484:12548   */\n      sstore\n        /* \"#utility.yul\":12406:12562   */\n      pop\n        /* \"#utility.yul\":12383:12562   */\n    tag_272:\n        /* \"#utility.yul\":12608:12609   */\n      0x01\n        /* \"#utility.yul\":12604:12605   */\n      0x02\n        /* \"#utility.yul\":12596:12602   */\n      dup9\n        /* \"#utility.yul\":12592:12606   */\n      mul\n        /* \"#utility.yul\":12588:12610   */\n      add\n        /* \"#utility.yul\":12582:12586   */\n      dup9\n        /* \"#utility.yul\":12575:12611   */\n      sstore\n        /* \"#utility.yul\":12010:12621   */\n      pop\n      pop\n      pop\n        /* \"#utility.yul\":11973:12860   */\n    tag_264:\n      pop\n        /* \"#utility.yul\":11563:12866   */\n      pop\n      pop\n      pop\n        /* \"#utility.yul\":11471:12866   */\n      pop\n      pop\n      jump\t// out\n        /* \"#utility.yul\":12872:13105   */\n    tag_36:\n        /* \"#utility.yul\":12911:12914   */\n      0x00\n        /* \"#utility.yul\":12934:12958   */\n      tag_275\n        /* \"#utility.yul\":12952:12957   */\n      dup3\n        /* \"#utility.yul\":12934:12958   */\n      tag_88\n      jump\t// in\n    tag_275:\n        /* \"#utility.yul\":12925:12958   */\n      swap2\n      pop\n        /* \"#utility.yul\":12980:13046   */\n      0xffffffffffffffffffffffffffffffffffffffffffffffffffffffffffffffff\n        /* \"#utility.yul\":12973:12978   */\n      dup3\n        /* \"#utility.yul\":12970:13047   */\n      sub\n        /* \"#utility.yul\":12967:13070   */\n      tag_276\n      jumpi\n        /* \"#utility.yul\":13050:13068   */\n      tag_277\n      tag_103\n      jump\t// in\n    tag_277:\n        /* \"#utility.yul\":12967:13070   */\n    tag_276:\n        /* \"#utility.yul\":13097:13098   */\n      0x01\n        /* \"#utility.yul\":13090:13095   */\n      dup3\n        /* \"#utility.yul\":13086:13099   */\n      add\n        /* \"#utility.yul\":13079:13099   */\n      swap1\n      pop\n        /* \"#utility.yul\":12872:13105   */\n      swap2\n      swap1\n      pop\n      jump\t// out\n        /* \"#utility.yul\":13111:13644   */\n    tag_38:\n        /* \"#utility.yul\":13280:13284   */\n      0x00\n        /* \"#utility.yul\":13318:13320   */\n      0x60\n        /* \"#utility.yul\":13307:13316   */\n      dup3\n        /* \"#utility.yul\":13303:13321   */\n      add\n        /* \"#utility.yul\":13295:13321   */\n      swap1\n      pop\n        /* \"#utility.yul\":13367:13376   */\n      dup2\n        /* \"#utility.yul\":13361:13365   */\n      dup2\n        /* \"#utility.yul\":13357:13377   */\n      sub\n        /* \"#utility.yul\":13353:13354   */\n      0x00\n        /* \"#utility.yul\":13342:13351   */\n      dup4\n        /* \"#utility.yul\":13338:13355   */\n      add\n        /* \"#utility.yul\":13331:13378   */\n      mstore\n        /* \"#utility.yul\":13395:13473   */\n      tag_279\n        /* \"#utility.yul\":13468:13472   */\n      dup2\n        /* \"#utility.yul\":13459:13465   */\n      dup7\n        /* \"#utility.yul\":13395:13473   */\n      tag_94\n      jump\t// in\n    tag_279:\n        /* \"#utility.yul\":13387:13473   */\n      swap1\n      pop\n        /* \"#utility.yul\":13483:13555   */\n      tag_280\n        /* \"#utility.yul\":13551:13553   */\n      0x20\n        /* \"#utility.yul\":13540:13549   */\n      dup4\n        /* \"#utility.yul\":13536:13554   */\n      add\n        /* \"#utility.yul\":13527:13533   */\n      dup6\n        /* \"#utility.yul\":13483:13555   */\n      tag_98\n      jump\t// in\n    tag_280:\n        /* \"#utility.yul\":13565:13637   */\n      tag_281\n        /* \"#utility.yul\":13633:13635   */\n      0x40\n        /* \"#utility.yul\":13622:13631   */\n      dup4\n        /* \"#utility.yul\":13618:13636   */\n      add\n        /* \"#utility.yul\":13609:13615   */\n      dup5\n        /* \"#utility.yul\":13565:13637   */\n      tag_100\n      jump\t// in\n    tag_281:\n        /* \"#utility.yul\":13111:13644   */\n      swap5\n      swap4\n      pop\n      pop\n      pop\n      pop\n      jump\t// out\n        /* \"#utility.yul\":13650:13844   */\n    tag_54:\n        /* \"#utility.yul\":13690:13694   */\n      0x00\n        /* \"#utility.yul\":13710:13730   */\n      tag_283\n        /* \"#utility.yul\":13728:13729   */\n      dup3\n        /* \"#utility.yul\":13710:13730   */\n      tag_88\n      jump\t// in\n    tag_283:\n        /* \"#utility.yul\":13705:13730   */\n      swap2\n      pop\n        /* \"#utility.yul\":13744:13764   */\n      tag_284\n        /* \"#utility.yul\":13762:13763   */\n      dup4\n        /* \"#utility.yul\":13744:13764   */\n      tag_88\n      jump\t// in\n    tag_284:\n        /* \"#utility.yul\":13739:13764   */\n      swap3\n      pop\n        /* \"#utility.yul\":13788:13789   */\n      dup3\n        /* \"#utility.yul\":13785:13786   */\n      dup3\n        /* \"#utility.yul\":13781:13790   */\n      sub\n        /* \"#utility.yul\":13773:13790   */\n      swap1\n      pop\n        /* \"#utility.yul\":13812:13813   */\n      dup2\n        /* \"#utility.yul\":13806:13810   */\n      dup2\n        /* \"#utility.yul\":13803:13814   */\n      gt\n        /* \"#utility.yul\":13800:13837   */\n      iszero\n      tag_285\n      jumpi\n        /* \"#utility.yul\":13817:13835   */\n      tag_286\n      tag_103\n      jump\t// in\n    tag_286:\n        /* \"#utility.yul\":13800:13837   */\n    tag_285:\n        /* \"#utility.yul\":13650:13844   */\n      swap3\n      swap2\n      pop\n      pop\n      jump\t// out\n        /* \"#utility.yul\":13850:14030   */\n    tag_57:\n        /* \"#utility.yul\":13898:13975   */\n      0x4e487b7100000000000000000000000000000000000000000000000000000000\n        /* \"#utility.yul\":13895:13896   */\n      0x00\n        /* \"#utility.yul\":13888:13976   */\n      mstore\n        /* \"#utility.yul\":13995:13999   */\n      0x32\n        /* \"#utility.yul\":13992:13993   */\n      0x04\n        /* \"#utility.yul\":13985:14000   */\n      mstore\n        /* \"#utility.yul\":14019:14023   */\n      0x24\n        /* \"#utility.yul\":14016:14017   */\n      0x00\n        /* \"#utility.yul\":14009:14024   */\n      revert\n        /* \"#utility.yul\":14036:14212   */\n    tag_120:\n        /* \"#utility.yul\":14176:14204   */\n      0x706c656173652070617920746865206578616374207072696365000000000000\n        /* \"#utility.yul\":14172:14173   */\n      0x00\n        /* \"#utility.yul\":14164:14170   */\n      dup3\n        /* \"#utility.yul\":14160:14174   */\n      add\n        /* \"#utility.yul\":14153:14205   */\n      mstore\n        /* \"#utility.yul\":14036:14212   */\n      pop\n      jump\t// out\n        /* \"#utility.yul\":14218:14584   */\n    tag_121:\n        /* \"#utility.yul\":14360:14363   */\n      0x00\n        /* \"#utility.yul\":14381:14448   */\n      tag_290\n        /* \"#utility.yul\":14445:14447   */\n      0x1a\n        /* \"#utility.yul\":14440:14443   */\n      dup4\n        /* \"#utility.yul\":14381:14448   */\n      tag_92\n      jump\t// in\n    tag_290:\n        /* \"#utility.yul\":14374:14448   */\n      swap2\n      pop\n        /* \"#utility.yul\":14457:14550   */\n      tag_291\n        /* \"#utility.yul\":14546:14549   */\n      dup3\n        /* \"#utility.yul\":14457:14550   */\n      tag_120\n      jump\t// in\n    tag_291:\n        /* \"#utility.yul\":14575:14577   */\n      0x20\n        /* \"#utility.yul\":14570:14573   */\n      dup3\n        /* \"#utility.yul\":14566:14578   */\n      add\n        /* \"#utility.yul\":14559:14578   */\n      swap1\n      pop\n        /* \"#utility.yul\":14218:14584   */\n      swap2\n      swap1\n      pop\n      jump\t// out\n        /* \"#utility.yul\":14590:15009   */\n    tag_61:\n        /* \"#utility.yul\":14756:14760   */\n      0x00\n        /* \"#utility.yul\":14794:14796   */\n      0x20\n        /* \"#utility.yul\":14783:14792   */\n      dup3\n        /* \"#utility.yul\":14779:14797   */\n      add\n        /* \"#utility.yul\":14771:14797   */\n      swap1\n      pop\n        /* \"#utility.yul\":14843:14852   */\n      dup2\n        /* \"#utility.yul\":14837:14841   */\n      dup2\n        /* \"#utility.yul\":14833:14853   */\n      sub\n        /* \"#utility.yul\":14829:14830   */\n      0x00\n        /* \"#utility.yul\":14818:14827   */\n      dup4\n        /* \"#utility.yul\":14814:14831   */\n      add\n        /* \"#utility.yul\":14807:14854   */\n      mstore\n        /* \"#utility.yul\":14871:15002   */\n      tag_293\n        /* \"#utility.yul\":14997:15001   */\n      dup2\n        /* \"#utility.yul\":14871:15002   */\n      tag_121\n      jump\t// in\n    tag_293:\n        /* \"#utility.yul\":14863:15002   */\n      swap1\n      pop\n        /* \"#utility.yul\":14590:15009   */\n      swap2\n      swap1\n      pop\n      jump\t// out\n        /* \"#utility.yul\":15015:15191   */\n    tag_122:\n        /* \"#utility.yul\":15155:15183   */\n      0x53656c6c65722063616e6e6f7420626520746865206275796572000000000000\n        /* \"#utility.yul\":15151:15152   */\n      0x00\n        /* \"#utility.yul\":15143:15149   */\n      dup3\n        /* \"#utility.yul\":15139:15153   */\n      add\n        /* \"#utility.yul\":15132:15184   */\n      mstore\n        /* \"#utility.yul\":15015:15191   */\n      pop\n      jump\t// out\n        /* \"#utility.yul\":15197:15563   */\n    tag_123:\n        /* \"#utility.yul\":15339:15342   */\n      0x00\n        /* \"#utility.yul\":15360:15427   */\n      tag_296\n        /* \"#utility.yul\":15424:15426   */\n      0x1a\n        /* \"#utility.yul\":15419:15422   */\n      dup4\n        /* \"#utility.yul\":15360:15427   */\n      tag_92\n      jump\t// in\n    tag_296:\n        /* \"#utility.yul\":15353:15427   */\n      swap2\n      pop\n        /* \"#utility.yul\":15436:15529   */\n      tag_297\n        /* \"#utility.yul\":15525:15528   */\n      dup3\n        /* \"#utility.yul\":15436:15529   */\n      tag_122\n      jump\t// in\n    tag_297:\n        /* \"#utility.yul\":15554:15556   */\n      0x20\n        /* \"#utility.yul\":15549:15552   */\n      dup3\n        /* \"#utility.yul\":15545:15557   */\n      add\n        /* \"#utility.yul\":15538:15557   */\n      swap1\n      pop\n        /* \"#utility.yul\":15197:15563   */\n      swap2\n      swap1\n      pop\n      jump\t// out\n        /* \"#utility.yul\":15569:15988   */\n    tag_68:\n        /* \"#utility.yul\":15735:15739   */\n      0x00\n        /* \"#utility.yul\":15773:15775   */\n      0x20\n        /* \"#utility.yul\":15762:15771   */\n      dup3\n        /* \"#utility.yul\":15758:15776   */\n      add\n        /* \"#utility.yul\":15750:15776   */\n      swap1\n      pop\n        /* \"#utility.yul\":15822:15831   */\n      dup2\n        /* \"#utility.yul\":15816:15820   */\n      dup2\n        /* \"#utility.yul\":15812:15832   */\n      sub\n        /* \"#utility.yul\":15808:15809   */\n      0x00\n        /* \"#utility.yul\":15797:15806   */\n      dup4\n        /* \"#utility.yul\":15793:15810   */\n      add\n        /* \"#utility.yul\":15786:15833   */\n      mstore\n        /* \"#utility.yul\":15850:15981   */\n      tag_299\n        /* \"#utility.yul\":15976:15980   */\n      dup2\n        /* \"#utility.yul\":15850:15981   */\n      tag_123\n      jump\t// in\n    tag_299:\n        /* \"#utility.yul\":15842:15981   */\n      swap1\n      pop\n        /* \"#utility.yul\":15569:15988   */\n      swap2\n      swap1\n      pop\n      jump\t// out\n        /* \"#utility.yul\":15994:16326   */\n    tag_74:\n        /* \"#utility.yul\":16115:16119   */\n      0x00\n        /* \"#utility.yul\":16153:16155   */\n      0x40\n        /* \"#utility.yul\":16142:16151   */\n      dup3\n        /* \"#utility.yul\":16138:16156   */\n      add\n        /* \"#utility.yul\":16130:16156   */\n      swap1\n      pop\n        /* \"#utility.yul\":16166:16237   */\n      tag_301\n        /* \"#utility.yul\":16234:16235   */\n      0x00\n        /* \"#utility.yul\":16223:16232   */\n      dup4\n        /* \"#utility.yul\":16219:16236   */\n      add\n        /* \"#utility.yul\":16210:16216   */\n      dup6\n        /* \"#utility.yul\":16166:16237   */\n      tag_98\n      jump\t// in\n    tag_301:\n        /* \"#utility.yul\":16247:16319   */\n      tag_302\n        /* \"#utility.yul\":16315:16317   */\n      0x20\n        /* \"#utility.yul\":16304:16313   */\n      dup4\n        /* \"#utility.yul\":16300:16318   */\n      add\n        /* \"#utility.yul\":16291:16297   */\n      dup5\n        /* \"#utility.yul\":16247:16319   */\n      tag_100\n      jump\t// in\n    tag_302:\n        /* \"#utility.yul\":15994:16326   */\n      swap4\n      swap3\n      pop\n      pop\n      pop\n      jump\t// out\n\n    auxdata: 0xa26469706673582212209c67b43f359cb853536dca303ed5da374464b2bd043e88cb8b8b2e263197ee4164736f6c63430008110033\n}\n",
				"bytecode": {
					"linkReferences": {},
					"object": "6080604052600180553480156200001557600080fd5b50604051620011743803806200117483398181016040528101906200003b9190620000ec565b806000806101000a81548173ffffffffffffffffffffffffffffffffffffffff021916908373ffffffffffffffffffffffffffffffffffffffff160217905550506200011e565b600080fd5b600073ffffffffffffffffffffffffffffffffffffffff82169050919050565b6000620000b48262000087565b9050919050565b620000c681620000a7565b8114620000d257600080fd5b50565b600081519050620000e681620000bb565b92915050565b60006020828403121562000105576200010462000082565b5b60006200011584828501620000d5565b91505092915050565b611046806200012e6000396000f3fe60806040526004361061003f5760003560e01c80633153a15b146100445780637acc0b201461006d5780638da5cb5b146100b0578063d96a094a146100db575b600080fd5b34801561005057600080fd5b5061006b6004803603810190610066919061087c565b6100f7565b005b34801561007957600080fd5b50610094600480360381019061008f9190610907565b6102eb565b6040516100a79796959493929190610a3f565b60405180910390f35b3480156100bc57600080fd5b506100c561049a565b6040516100d29190610abc565b60405180910390f35b6100f560048036038101906100f09190610907565b6104be565b005b6100ff610681565b838160000181905250828160200181905250670de0b6b3a7640000826101259190610b06565b81608001818152505033816040019073ffffffffffffffffffffffffffffffffffffffff16908173ffffffffffffffffffffffffffffffffffffffff1681525050600154816060018181525050600281908060018154018082558091505060019003906000526020600020906006020160009091909190915060008201518160000190816101b39190610d54565b5060208201518160010190816101c99190610d54565b5060408201518160020160006101000a81548173ffffffffffffffffffffffffffffffffffffffff021916908373ffffffffffffffffffffffffffffffffffffffff160217905550606082015181600301556080820151816004015560a08201518160050160006101000a81548173ffffffffffffffffffffffffffffffffffffffff021916908373ffffffffffffffffffffffffffffffffffffffff16021790555060c08201518160050160146101000a81548160ff0219169083151502179055505050600160008154809291906102a190610e26565b91905055507f2f2d57060110e728629fcdcfd43a3b0f571b51ca1899668910d777e935601e3e848260600151336040516102dd93929190610e6e565b60405180910390a150505050565b600281815481106102fb57600080fd5b906000526020600020906006020160009150905080600001805461031e90610b77565b80601f016020809104026020016040519081016040528092919081815260200182805461034a90610b77565b80156103975780601f1061036c57610100808354040283529160200191610397565b820191906000526020600020905b81548152906001019060200180831161037a57829003601f168201915b5050505050908060010180546103ac90610b77565b80601f01602080910402602001604051908101604052809291908181526020018280546103d890610b77565b80156104255780601f106103fa57610100808354040283529160200191610425565b820191906000526020600020905b81548152906001019060200180831161040857829003601f168201915b5050505050908060020160009054906101000a900473ffffffffffffffffffffffffffffffffffffffff16908060030154908060040154908060050160009054906101000a900473ffffffffffffffffffffffffffffffffffffffff16908060050160149054906101000a900460ff16905087565b60008054906101000a900473ffffffffffffffffffffffffffffffffffffffff1681565b3460026001836104ce9190610eac565b815481106104df576104de610ee0565b5b90600052602060002090600602016004015414610531576040517f08c379a000000000000000000000000000000000000000000000000000000000815260040161052890610f5b565b60405180910390fd5b3373ffffffffffffffffffffffffffffffffffffffff1660026001836105579190610eac565b8154811061056857610567610ee0565b5b906000526020600020906006020160020160009054906101000a900473ffffffffffffffffffffffffffffffffffffffff1673ffffffffffffffffffffffffffffffffffffffff16036105f0576040517f08c379a00000000000000000000000000000000000000000000000000000000081526004016105e790610fc7565b60405180910390fd5b3373ffffffffffffffffffffffffffffffffffffffff1660026001836106169190610eac565b8154811061062757610626610ee0565b5b906000526020600020906006020160050160009054906101000a905050507f2c9b5e9655a41ab13c5183c231239df125ecbd546a947624c913cfd43094906e8133604051610676929190610fe7565b60405180910390a150565b6040518060e001604052806060815260200160608152602001600073ffffffffffffffffffffffffffffffffffffffff1681526020016000815260200160008152602001600073ffffffffffffffffffffffffffffffffffffffff1681526020016000151581525090565b6000604051905090565b600080fd5b600080fd5b600080fd5b600080fd5b6000601f19601f8301169050919050565b7f4e487b7100000000000000000000000000000000000000000000000000000000600052604160045260246000fd5b6107538261070a565b810181811067ffffffffffffffff821117156107725761077161071b565b5b80604052505050565b60006107856106ec565b9050610791828261074a565b919050565b600067ffffffffffffffff8211156107b1576107b061071b565b5b6107ba8261070a565b9050602081019050919050565b82818337600083830152505050565b60006107e96107e484610796565b61077b565b90508281526020810184848401111561080557610804610705565b5b6108108482856107c7565b509392505050565b600082601f83011261082d5761082c610700565b5b813561083d8482602086016107d6565b91505092915050565b6000819050919050565b61085981610846565b811461086457600080fd5b50565b60008135905061087681610850565b92915050565b600080600060608486031215610895576108946106f6565b5b600084013567ffffffffffffffff8111156108b3576108b26106fb565b5b6108bf86828701610818565b935050602084013567ffffffffffffffff8111156108e0576108df6106fb565b5b6108ec86828701610818565b92505060406108fd86828701610867565b9150509250925092565b60006020828403121561091d5761091c6106f6565b5b600061092b84828501610867565b91505092915050565b600081519050919050565b600082825260208201905092915050565b60005b8381101561096e578082015181840152602081019050610953565b60008484015250505050565b600061098582610934565b61098f818561093f565b935061099f818560208601610950565b6109a88161070a565b840191505092915050565b600073ffffffffffffffffffffffffffffffffffffffff82169050919050565b60006109de826109b3565b9050919050565b6109ee816109d3565b82525050565b6109fd81610846565b82525050565b6000610a0e826109b3565b9050919050565b610a1e81610a03565b82525050565b60008115159050919050565b610a3981610a24565b82525050565b600060e0820190508181036000830152610a59818a61097a565b90508181036020830152610a6d818961097a565b9050610a7c60408301886109e5565b610a8960608301876109f4565b610a9660808301866109f4565b610aa360a0830185610a15565b610ab060c0830184610a30565b98975050505050505050565b6000602082019050610ad16000830184610a15565b92915050565b7f4e487b7100000000000000000000000000000000000000000000000000000000600052601160045260246000fd5b6000610b1182610846565b9150610b1c83610846565b9250828202610b2a81610846565b91508282048414831517610b4157610b40610ad7565b5b5092915050565b7f4e487b7100000000000000000000000000000000000000000000000000000000600052602260045260246000fd5b60006002820490506001821680610b8f57607f821691505b602082108103610ba257610ba1610b48565b5b50919050565b60008190508160005260206000209050919050565b60006020601f8301049050919050565b600082821b905092915050565b600060088302610c0a7fffffffffffffffffffffffffffffffffffffffffffffffffffffffffffffffff82610bcd565b610c148683610bcd565b95508019841693508086168417925050509392505050565b6000819050919050565b6000610c51610c4c610c4784610846565b610c2c565b610846565b9050919050565b6000819050919050565b610c6b83610c36565b610c7f610c7782610c58565b848454610bda565b825550505050565b600090565b610c94610c87565b610c9f818484610c62565b505050565b5b81811015610cc357610cb8600082610c8c565b600181019050610ca5565b5050565b601f821115610d0857610cd981610ba8565b610ce284610bbd565b81016020851015610cf1578190505b610d05610cfd85610bbd565b830182610ca4565b50505b505050565b600082821c905092915050565b6000610d2b60001984600802610d0d565b1980831691505092915050565b6000610d448383610d1a565b9150826002028217905092915050565b610d5d82610934565b67ffffffffffffffff811115610d7657610d7561071b565b5b610d808254610b77565b610d8b828285610cc7565b600060209050601f831160018114610dbe5760008415610dac578287015190505b610db68582610d38565b865550610e1e565b601f198416610dcc86610ba8565b60005b82811015610df457848901518255600182019150602085019450602081019050610dcf565b86831015610e115784890151610e0d601f891682610d1a565b8355505b6001600288020188555050505b505050505050565b6000610e3182610846565b91507fffffffffffffffffffffffffffffffffffffffffffffffffffffffffffffffff8203610e6357610e62610ad7565b5b600182019050919050565b60006060820190508181036000830152610e88818661097a565b9050610e9760208301856109f4565b610ea46040830184610a15565b949350505050565b6000610eb782610846565b9150610ec283610846565b9250828203905081811115610eda57610ed9610ad7565b5b92915050565b7f4e487b7100000000000000000000000000000000000000000000000000000000600052603260045260246000fd5b7f706c656173652070617920746865206578616374207072696365000000000000600082015250565b6000610f45601a8361093f565b9150610f5082610f0f565b602082019050919050565b60006020820190508181036000830152610f7481610f38565b9050919050565b7f53656c6c65722063616e6e6f7420626520746865206275796572000000000000600082015250565b6000610fb1601a8361093f565b9150610fbc82610f7b565b602082019050919050565b60006020820190508181036000830152610fe081610fa4565b9050919050565b6000604082019050610ffc60008301856109f4565b6110096020830184610a15565b939250505056fea26469706673582212209c67b43f359cb853536dca303ed5da374464b2bd043e88cb8b8b2e263197ee4164736f6c63430008110033",
					"opcodes": "PUSH1 0x80 PUSH1 0x40 MSTORE PUSH1 0x1 DUP1 SSTORE CALLVALUE DUP1 ISZERO PUSH3 0x15 JUMPI PUSH1 0x0 DUP1 REVERT JUMPDEST POP PUSH1 0x40 MLOAD PUSH3 0x1174 CODESIZE SUB DUP1 PUSH3 0x1174 DUP4 CODECOPY DUP2 DUP2 ADD PUSH1 0x40 MSTORE DUP2 ADD SWAP1 PUSH3 0x3B SWAP2 SWAP1 PUSH3 0xEC JUMP JUMPDEST DUP1 PUSH1 0x0 DUP1 PUSH2 0x100 EXP DUP2 SLOAD DUP2 PUSH20 0xFFFFFFFFFFFFFFFFFFFFFFFFFFFFFFFFFFFFFFFF MUL NOT AND SWAP1 DUP4 PUSH20 0xFFFFFFFFFFFFFFFFFFFFFFFFFFFFFFFFFFFFFFFF AND MUL OR SWAP1 SSTORE POP POP PUSH3 0x11E JUMP JUMPDEST PUSH1 0x0 DUP1 REVERT JUMPDEST PUSH1 0x0 PUSH20 0xFFFFFFFFFFFFFFFFFFFFFFFFFFFFFFFFFFFFFFFF DUP3 AND SWAP1 POP SWAP2 SWAP1 POP JUMP JUMPDEST PUSH1 0x0 PUSH3 0xB4 DUP3 PUSH3 0x87 JUMP JUMPDEST SWAP1 POP SWAP2 SWAP1 POP JUMP JUMPDEST PUSH3 0xC6 DUP2 PUSH3 0xA7 JUMP JUMPDEST DUP2 EQ PUSH3 0xD2 JUMPI PUSH1 0x0 DUP1 REVERT JUMPDEST POP JUMP JUMPDEST PUSH1 0x0 DUP2 MLOAD SWAP1 POP PUSH3 0xE6 DUP2 PUSH3 0xBB JUMP JUMPDEST SWAP3 SWAP2 POP POP JUMP JUMPDEST PUSH1 0x0 PUSH1 0x20 DUP3 DUP5 SUB SLT ISZERO PUSH3 0x105 JUMPI PUSH3 0x104 PUSH3 0x82 JUMP JUMPDEST JUMPDEST PUSH1 0x0 PUSH3 0x115 DUP5 DUP3 DUP6 ADD PUSH3 0xD5 JUMP JUMPDEST SWAP2 POP POP SWAP3 SWAP2 POP POP JUMP JUMPDEST PUSH2 0x1046 DUP1 PUSH3 0x12E PUSH1 0x0 CODECOPY PUSH1 0x0 RETURN INVALID PUSH1 0x80 PUSH1 0x40 MSTORE PUSH1 0x4 CALLDATASIZE LT PUSH2 0x3F JUMPI PUSH1 0x0 CALLDATALOAD PUSH1 0xE0 SHR DUP1 PUSH4 0x3153A15B EQ PUSH2 0x44 JUMPI DUP1 PUSH4 0x7ACC0B20 EQ PUSH2 0x6D JUMPI DUP1 PUSH4 0x8DA5CB5B EQ PUSH2 0xB0 JUMPI DUP1 PUSH4 0xD96A094A EQ PUSH2 0xDB JUMPI JUMPDEST PUSH1 0x0 DUP1 REVERT JUMPDEST CALLVALUE DUP1 ISZERO PUSH2 0x50 JUMPI PUSH1 0x0 DUP1 REVERT JUMPDEST POP PUSH2 0x6B PUSH1 0x4 DUP1 CALLDATASIZE SUB DUP2 ADD SWAP1 PUSH2 0x66 SWAP2 SWAP1 PUSH2 0x87C JUMP JUMPDEST PUSH2 0xF7 JUMP JUMPDEST STOP JUMPDEST CALLVALUE DUP1 ISZERO PUSH2 0x79 JUMPI PUSH1 0x0 DUP1 REVERT JUMPDEST POP PUSH2 0x94 PUSH1 0x4 DUP1 CALLDATASIZE SUB DUP2 ADD SWAP1 PUSH2 0x8F SWAP2 SWAP1 PUSH2 0x907 JUMP JUMPDEST PUSH2 0x2EB JUMP JUMPDEST PUSH1 0x40 MLOAD PUSH2 0xA7 SWAP8 SWAP7 SWAP6 SWAP5 SWAP4 SWAP3 SWAP2 SWAP1 PUSH2 0xA3F JUMP JUMPDEST PUSH1 0x40 MLOAD DUP1 SWAP2 SUB SWAP1 RETURN JUMPDEST CALLVALUE DUP1 ISZERO PUSH2 0xBC JUMPI PUSH1 0x0 DUP1 REVERT JUMPDEST POP PUSH2 0xC5 PUSH2 0x49A JUMP JUMPDEST PUSH1 0x40 MLOAD PUSH2 0xD2 SWAP2 SWAP1 PUSH2 0xABC JUMP JUMPDEST PUSH1 0x40 MLOAD DUP1 SWAP2 SUB SWAP1 RETURN JUMPDEST PUSH2 0xF5 PUSH1 0x4 DUP1 CALLDATASIZE SUB DUP2 ADD SWAP1 PUSH2 0xF0 SWAP2 SWAP1 PUSH2 0x907 JUMP JUMPDEST PUSH2 0x4BE JUMP JUMPDEST STOP JUMPDEST PUSH2 0xFF PUSH2 0x681 JUMP JUMPDEST DUP4 DUP2 PUSH1 0x0 ADD DUP2 SWAP1 MSTORE POP DUP3 DUP2 PUSH1 0x20 ADD DUP2 SWAP1 MSTORE POP PUSH8 0xDE0B6B3A7640000 DUP3 PUSH2 0x125 SWAP2 SWAP1 PUSH2 0xB06 JUMP JUMPDEST DUP2 PUSH1 0x80 ADD DUP2 DUP2 MSTORE POP POP CALLER DUP2 PUSH1 0x40 ADD SWAP1 PUSH20 0xFFFFFFFFFFFFFFFFFFFFFFFFFFFFFFFFFFFFFFFF AND SWAP1 DUP2 PUSH20 0xFFFFFFFFFFFFFFFFFFFFFFFFFFFFFFFFFFFFFFFF AND DUP2 MSTORE POP POP PUSH1 0x1 SLOAD DUP2 PUSH1 0x60 ADD DUP2 DUP2 MSTORE POP POP PUSH1 0x2 DUP2 SWAP1 DUP1 PUSH1 0x1 DUP2 SLOAD ADD DUP1 DUP3 SSTORE DUP1 SWAP2 POP POP PUSH1 0x1 SWAP1 SUB SWAP1 PUSH1 0x0 MSTORE PUSH1 0x20 PUSH1 0x0 KECCAK256 SWAP1 PUSH1 0x6 MUL ADD PUSH1 0x0 SWAP1 SWAP2 SWAP1 SWAP2 SWAP1 SWAP2 POP PUSH1 0x0 DUP3 ADD MLOAD DUP2 PUSH1 0x0 ADD SWAP1 DUP2 PUSH2 0x1B3 SWAP2 SWAP1 PUSH2 0xD54 JUMP JUMPDEST POP PUSH1 0x20 DUP3 ADD MLOAD DUP2 PUSH1 0x1 ADD SWAP1 DUP2 PUSH2 0x1C9 SWAP2 SWAP1 PUSH2 0xD54 JUMP JUMPDEST POP PUSH1 0x40 DUP3 ADD MLOAD DUP2 PUSH1 0x2 ADD PUSH1 0x0 PUSH2 0x100 EXP DUP2 SLOAD DUP2 PUSH20 0xFFFFFFFFFFFFFFFFFFFFFFFFFFFFFFFFFFFFFFFF MUL NOT AND SWAP1 DUP4 PUSH20 0xFFFFFFFFFFFFFFFFFFFFFFFFFFFFFFFFFFFFFFFF AND MUL OR SWAP1 SSTORE POP PUSH1 0x60 DUP3 ADD MLOAD DUP2 PUSH1 0x3 ADD SSTORE PUSH1 0x80 DUP3 ADD MLOAD DUP2 PUSH1 0x4 ADD SSTORE PUSH1 0xA0 DUP3 ADD MLOAD DUP2 PUSH1 0x5 ADD PUSH1 0x0 PUSH2 0x100 EXP DUP2 SLOAD DUP2 PUSH20 0xFFFFFFFFFFFFFFFFFFFFFFFFFFFFFFFFFFFFFFFF MUL NOT AND SWAP1 DUP4 PUSH20 0xFFFFFFFFFFFFFFFFFFFFFFFFFFFFFFFFFFFFFFFF AND MUL OR SWAP1 SSTORE POP PUSH1 0xC0 DUP3 ADD MLOAD DUP2 PUSH1 0x5 ADD PUSH1 0x14 PUSH2 0x100 EXP DUP2 SLOAD DUP2 PUSH1 0xFF MUL NOT AND SWAP1 DUP4 ISZERO ISZERO MUL OR SWAP1 SSTORE POP POP POP PUSH1 0x1 PUSH1 0x0 DUP2 SLOAD DUP1 SWAP3 SWAP2 SWAP1 PUSH2 0x2A1 SWAP1 PUSH2 0xE26 JUMP JUMPDEST SWAP2 SWAP1 POP SSTORE POP PUSH32 0x2F2D57060110E728629FCDCFD43A3B0F571B51CA1899668910D777E935601E3E DUP5 DUP3 PUSH1 0x60 ADD MLOAD CALLER PUSH1 0x40 MLOAD PUSH2 0x2DD SWAP4 SWAP3 SWAP2 SWAP1 PUSH2 0xE6E JUMP JUMPDEST PUSH1 0x40 MLOAD DUP1 SWAP2 SUB SWAP1 LOG1 POP POP POP POP JUMP JUMPDEST PUSH1 0x2 DUP2 DUP2 SLOAD DUP2 LT PUSH2 0x2FB JUMPI PUSH1 0x0 DUP1 REVERT JUMPDEST SWAP1 PUSH1 0x0 MSTORE PUSH1 0x20 PUSH1 0x0 KECCAK256 SWAP1 PUSH1 0x6 MUL ADD PUSH1 0x0 SWAP2 POP SWAP1 POP DUP1 PUSH1 0x0 ADD DUP1 SLOAD PUSH2 0x31E SWAP1 PUSH2 0xB77 JUMP JUMPDEST DUP1 PUSH1 0x1F ADD PUSH1 0x20 DUP1 SWAP2 DIV MUL PUSH1 0x20 ADD PUSH1 0x40 MLOAD SWAP1 DUP2 ADD PUSH1 0x40 MSTORE DUP1 SWAP3 SWAP2 SWAP1 DUP2 DUP2 MSTORE PUSH1 0x20 ADD DUP3 DUP1 SLOAD PUSH2 0x34A SWAP1 PUSH2 0xB77 JUMP JUMPDEST DUP1 ISZERO PUSH2 0x397 JUMPI DUP1 PUSH1 0x1F LT PUSH2 0x36C JUMPI PUSH2 0x100 DUP1 DUP4 SLOAD DIV MUL DUP4 MSTORE SWAP2 PUSH1 0x20 ADD SWAP2 PUSH2 0x397 JUMP JUMPDEST DUP3 ADD SWAP2 SWAP1 PUSH1 0x0 MSTORE PUSH1 0x20 PUSH1 0x0 KECCAK256 SWAP1 JUMPDEST DUP2 SLOAD DUP2 MSTORE SWAP1 PUSH1 0x1 ADD SWAP1 PUSH1 0x20 ADD DUP1 DUP4 GT PUSH2 0x37A JUMPI DUP3 SWAP1 SUB PUSH1 0x1F AND DUP3 ADD SWAP2 JUMPDEST POP POP POP POP POP SWAP1 DUP1 PUSH1 0x1 ADD DUP1 SLOAD PUSH2 0x3AC SWAP1 PUSH2 0xB77 JUMP JUMPDEST DUP1 PUSH1 0x1F ADD PUSH1 0x20 DUP1 SWAP2 DIV MUL PUSH1 0x20 ADD PUSH1 0x40 MLOAD SWAP1 DUP2 ADD PUSH1 0x40 MSTORE DUP1 SWAP3 SWAP2 SWAP1 DUP2 DUP2 MSTORE PUSH1 0x20 ADD DUP3 DUP1 SLOAD PUSH2 0x3D8 SWAP1 PUSH2 0xB77 JUMP JUMPDEST DUP1 ISZERO PUSH2 0x425 JUMPI DUP1 PUSH1 0x1F LT PUSH2 0x3FA JUMPI PUSH2 0x100 DUP1 DUP4 SLOAD DIV MUL DUP4 MSTORE SWAP2 PUSH1 0x20 ADD SWAP2 PUSH2 0x425 JUMP JUMPDEST DUP3 ADD SWAP2 SWAP1 PUSH1 0x0 MSTORE PUSH1 0x20 PUSH1 0x0 KECCAK256 SWAP1 JUMPDEST DUP2 SLOAD DUP2 MSTORE SWAP1 PUSH1 0x1 ADD SWAP1 PUSH1 0x20 ADD DUP1 DUP4 GT PUSH2 0x408 JUMPI DUP3 SWAP1 SUB PUSH1 0x1F AND DUP3 ADD SWAP2 JUMPDEST POP POP POP POP POP SWAP1 DUP1 PUSH1 0x2 ADD PUSH1 0x0 SWAP1 SLOAD SWAP1 PUSH2 0x100 EXP SWAP1 DIV PUSH20 0xFFFFFFFFFFFFFFFFFFFFFFFFFFFFFFFFFFFFFFFF AND SWAP1 DUP1 PUSH1 0x3 ADD SLOAD SWAP1 DUP1 PUSH1 0x4 ADD SLOAD SWAP1 DUP1 PUSH1 0x5 ADD PUSH1 0x0 SWAP1 SLOAD SWAP1 PUSH2 0x100 EXP SWAP1 DIV PUSH20 0xFFFFFFFFFFFFFFFFFFFFFFFFFFFFFFFFFFFFFFFF AND SWAP1 DUP1 PUSH1 0x5 ADD PUSH1 0x14 SWAP1 SLOAD SWAP1 PUSH2 0x100 EXP SWAP1 DIV PUSH1 0xFF AND SWAP1 POP DUP8 JUMP JUMPDEST PUSH1 0x0 DUP1 SLOAD SWAP1 PUSH2 0x100 EXP SWAP1 DIV PUSH20 0xFFFFFFFFFFFFFFFFFFFFFFFFFFFFFFFFFFFFFFFF AND DUP2 JUMP JUMPDEST CALLVALUE PUSH1 0x2 PUSH1 0x1 DUP4 PUSH2 0x4CE SWAP2 SWAP1 PUSH2 0xEAC JUMP JUMPDEST DUP2 SLOAD DUP2 LT PUSH2 0x4DF JUMPI PUSH2 0x4DE PUSH2 0xEE0 JUMP JUMPDEST JUMPDEST SWAP1 PUSH1 0x0 MSTORE PUSH1 0x20 PUSH1 0x0 KECCAK256 SWAP1 PUSH1 0x6 MUL ADD PUSH1 0x4 ADD SLOAD EQ PUSH2 0x531 JUMPI PUSH1 0x40 MLOAD PUSH32 0x8C379A000000000000000000000000000000000000000000000000000000000 DUP2 MSTORE PUSH1 0x4 ADD PUSH2 0x528 SWAP1 PUSH2 0xF5B JUMP JUMPDEST PUSH1 0x40 MLOAD DUP1 SWAP2 SUB SWAP1 REVERT JUMPDEST CALLER PUSH20 0xFFFFFFFFFFFFFFFFFFFFFFFFFFFFFFFFFFFFFFFF AND PUSH1 0x2 PUSH1 0x1 DUP4 PUSH2 0x557 SWAP2 SWAP1 PUSH2 0xEAC JUMP JUMPDEST DUP2 SLOAD DUP2 LT PUSH2 0x568 JUMPI PUSH2 0x567 PUSH2 0xEE0 JUMP JUMPDEST JUMPDEST SWAP1 PUSH1 0x0 MSTORE PUSH1 0x20 PUSH1 0x0 KECCAK256 SWAP1 PUSH1 0x6 MUL ADD PUSH1 0x2 ADD PUSH1 0x0 SWAP1 SLOAD SWAP1 PUSH2 0x100 EXP SWAP1 DIV PUSH20 0xFFFFFFFFFFFFFFFFFFFFFFFFFFFFFFFFFFFFFFFF AND PUSH20 0xFFFFFFFFFFFFFFFFFFFFFFFFFFFFFFFFFFFFFFFF AND SUB PUSH2 0x5F0 JUMPI PUSH1 0x40 MLOAD PUSH32 0x8C379A000000000000000000000000000000000000000000000000000000000 DUP2 MSTORE PUSH1 0x4 ADD PUSH2 0x5E7 SWAP1 PUSH2 0xFC7 JUMP JUMPDEST PUSH1 0x40 MLOAD DUP1 SWAP2 SUB SWAP1 REVERT JUMPDEST CALLER PUSH20 0xFFFFFFFFFFFFFFFFFFFFFFFFFFFFFFFFFFFFFFFF AND PUSH1 0x2 PUSH1 0x1 DUP4 PUSH2 0x616 SWAP2 SWAP1 PUSH2 0xEAC JUMP JUMPDEST DUP2 SLOAD DUP2 LT PUSH2 0x627 JUMPI PUSH2 0x626 PUSH2 0xEE0 JUMP JUMPDEST JUMPDEST SWAP1 PUSH1 0x0 MSTORE PUSH1 0x20 PUSH1 0x0 KECCAK256 SWAP1 PUSH1 0x6 MUL ADD PUSH1 0x5 ADD PUSH1 0x0 SWAP1 SLOAD SWAP1 PUSH2 0x100 EXP SWAP1 POP POP POP PUSH32 0x2C9B5E9655A41AB13C5183C231239DF125ECBD546A947624C913CFD43094906E DUP2 CALLER PUSH1 0x40 MLOAD PUSH2 0x676 SWAP3 SWAP2 SWAP1 PUSH2 0xFE7 JUMP JUMPDEST PUSH1 0x40 MLOAD DUP1 SWAP2 SUB SWAP1 LOG1 POP JUMP JUMPDEST PUSH1 0x40 MLOAD DUP1 PUSH1 0xE0 ADD PUSH1 0x40 MSTORE DUP1 PUSH1 0x60 DUP2 MSTORE PUSH1 0x20 ADD PUSH1 0x60 DUP2 MSTORE PUSH1 0x20 ADD PUSH1 0x0 PUSH20 0xFFFFFFFFFFFFFFFFFFFFFFFFFFFFFFFFFFFFFFFF AND DUP2 MSTORE PUSH1 0x20 ADD PUSH1 0x0 DUP2 MSTORE PUSH1 0x20 ADD PUSH1 0x0 DUP2 MSTORE PUSH1 0x20 ADD PUSH1 0x0 PUSH20 0xFFFFFFFFFFFFFFFFFFFFFFFFFFFFFFFFFFFFFFFF AND DUP2 MSTORE PUSH1 0x20 ADD PUSH1 0x0 ISZERO ISZERO DUP2 MSTORE POP SWAP1 JUMP JUMPDEST PUSH1 0x0 PUSH1 0x40 MLOAD SWAP1 POP SWAP1 JUMP JUMPDEST PUSH1 0x0 DUP1 REVERT JUMPDEST PUSH1 0x0 DUP1 REVERT JUMPDEST PUSH1 0x0 DUP1 REVERT JUMPDEST PUSH1 0x0 DUP1 REVERT JUMPDEST PUSH1 0x0 PUSH1 0x1F NOT PUSH1 0x1F DUP4 ADD AND SWAP1 POP SWAP2 SWAP1 POP JUMP JUMPDEST PUSH32 0x4E487B7100000000000000000000000000000000000000000000000000000000 PUSH1 0x0 MSTORE PUSH1 0x41 PUSH1 0x4 MSTORE PUSH1 0x24 PUSH1 0x0 REVERT JUMPDEST PUSH2 0x753 DUP3 PUSH2 0x70A JUMP JUMPDEST DUP2 ADD DUP2 DUP2 LT PUSH8 0xFFFFFFFFFFFFFFFF DUP3 GT OR ISZERO PUSH2 0x772 JUMPI PUSH2 0x771 PUSH2 0x71B JUMP JUMPDEST JUMPDEST DUP1 PUSH1 0x40 MSTORE POP POP POP JUMP JUMPDEST PUSH1 0x0 PUSH2 0x785 PUSH2 0x6EC JUMP JUMPDEST SWAP1 POP PUSH2 0x791 DUP3 DUP3 PUSH2 0x74A JUMP JUMPDEST SWAP2 SWAP1 POP JUMP JUMPDEST PUSH1 0x0 PUSH8 0xFFFFFFFFFFFFFFFF DUP3 GT ISZERO PUSH2 0x7B1 JUMPI PUSH2 0x7B0 PUSH2 0x71B JUMP JUMPDEST JUMPDEST PUSH2 0x7BA DUP3 PUSH2 0x70A JUMP JUMPDEST SWAP1 POP PUSH1 0x20 DUP2 ADD SWAP1 POP SWAP2 SWAP1 POP JUMP JUMPDEST DUP3 DUP2 DUP4 CALLDATACOPY PUSH1 0x0 DUP4 DUP4 ADD MSTORE POP POP POP JUMP JUMPDEST PUSH1 0x0 PUSH2 0x7E9 PUSH2 0x7E4 DUP5 PUSH2 0x796 JUMP JUMPDEST PUSH2 0x77B JUMP JUMPDEST SWAP1 POP DUP3 DUP2 MSTORE PUSH1 0x20 DUP2 ADD DUP5 DUP5 DUP5 ADD GT ISZERO PUSH2 0x805 JUMPI PUSH2 0x804 PUSH2 0x705 JUMP JUMPDEST JUMPDEST PUSH2 0x810 DUP5 DUP3 DUP6 PUSH2 0x7C7 JUMP JUMPDEST POP SWAP4 SWAP3 POP POP POP JUMP JUMPDEST PUSH1 0x0 DUP3 PUSH1 0x1F DUP4 ADD SLT PUSH2 0x82D JUMPI PUSH2 0x82C PUSH2 0x700 JUMP JUMPDEST JUMPDEST DUP2 CALLDATALOAD PUSH2 0x83D DUP5 DUP3 PUSH1 0x20 DUP7 ADD PUSH2 0x7D6 JUMP JUMPDEST SWAP2 POP POP SWAP3 SWAP2 POP POP JUMP JUMPDEST PUSH1 0x0 DUP2 SWAP1 POP SWAP2 SWAP1 POP JUMP JUMPDEST PUSH2 0x859 DUP2 PUSH2 0x846 JUMP JUMPDEST DUP2 EQ PUSH2 0x864 JUMPI PUSH1 0x0 DUP1 REVERT JUMPDEST POP JUMP JUMPDEST PUSH1 0x0 DUP2 CALLDATALOAD SWAP1 POP PUSH2 0x876 DUP2 PUSH2 0x850 JUMP JUMPDEST SWAP3 SWAP2 POP POP JUMP JUMPDEST PUSH1 0x0 DUP1 PUSH1 0x0 PUSH1 0x60 DUP5 DUP7 SUB SLT ISZERO PUSH2 0x895 JUMPI PUSH2 0x894 PUSH2 0x6F6 JUMP JUMPDEST JUMPDEST PUSH1 0x0 DUP5 ADD CALLDATALOAD PUSH8 0xFFFFFFFFFFFFFFFF DUP2 GT ISZERO PUSH2 0x8B3 JUMPI PUSH2 0x8B2 PUSH2 0x6FB JUMP JUMPDEST JUMPDEST PUSH2 0x8BF DUP7 DUP3 DUP8 ADD PUSH2 0x818 JUMP JUMPDEST SWAP4 POP POP PUSH1 0x20 DUP5 ADD CALLDATALOAD PUSH8 0xFFFFFFFFFFFFFFFF DUP2 GT ISZERO PUSH2 0x8E0 JUMPI PUSH2 0x8DF PUSH2 0x6FB JUMP JUMPDEST JUMPDEST PUSH2 0x8EC DUP7 DUP3 DUP8 ADD PUSH2 0x818 JUMP JUMPDEST SWAP3 POP POP PUSH1 0x40 PUSH2 0x8FD DUP7 DUP3 DUP8 ADD PUSH2 0x867 JUMP JUMPDEST SWAP2 POP POP SWAP3 POP SWAP3 POP SWAP3 JUMP JUMPDEST PUSH1 0x0 PUSH1 0x20 DUP3 DUP5 SUB SLT ISZERO PUSH2 0x91D JUMPI PUSH2 0x91C PUSH2 0x6F6 JUMP JUMPDEST JUMPDEST PUSH1 0x0 PUSH2 0x92B DUP5 DUP3 DUP6 ADD PUSH2 0x867 JUMP JUMPDEST SWAP2 POP POP SWAP3 SWAP2 POP POP JUMP JUMPDEST PUSH1 0x0 DUP2 MLOAD SWAP1 POP SWAP2 SWAP1 POP JUMP JUMPDEST PUSH1 0x0 DUP3 DUP3 MSTORE PUSH1 0x20 DUP3 ADD SWAP1 POP SWAP3 SWAP2 POP POP JUMP JUMPDEST PUSH1 0x0 JUMPDEST DUP4 DUP2 LT ISZERO PUSH2 0x96E JUMPI DUP1 DUP3 ADD MLOAD DUP2 DUP5 ADD MSTORE PUSH1 0x20 DUP2 ADD SWAP1 POP PUSH2 0x953 JUMP JUMPDEST PUSH1 0x0 DUP5 DUP5 ADD MSTORE POP POP POP POP JUMP JUMPDEST PUSH1 0x0 PUSH2 0x985 DUP3 PUSH2 0x934 JUMP JUMPDEST PUSH2 0x98F DUP2 DUP6 PUSH2 0x93F JUMP JUMPDEST SWAP4 POP PUSH2 0x99F DUP2 DUP6 PUSH1 0x20 DUP7 ADD PUSH2 0x950 JUMP JUMPDEST PUSH2 0x9A8 DUP2 PUSH2 0x70A JUMP JUMPDEST DUP5 ADD SWAP2 POP POP SWAP3 SWAP2 POP POP JUMP JUMPDEST PUSH1 0x0 PUSH20 0xFFFFFFFFFFFFFFFFFFFFFFFFFFFFFFFFFFFFFFFF DUP3 AND SWAP1 POP SWAP2 SWAP1 POP JUMP JUMPDEST PUSH1 0x0 PUSH2 0x9DE DUP3 PUSH2 0x9B3 JUMP JUMPDEST SWAP1 POP SWAP2 SWAP1 POP JUMP JUMPDEST PUSH2 0x9EE DUP2 PUSH2 0x9D3 JUMP JUMPDEST DUP3 MSTORE POP POP JUMP JUMPDEST PUSH2 0x9FD DUP2 PUSH2 0x846 JUMP JUMPDEST DUP3 MSTORE POP POP JUMP JUMPDEST PUSH1 0x0 PUSH2 0xA0E DUP3 PUSH2 0x9B3 JUMP JUMPDEST SWAP1 POP SWAP2 SWAP1 POP JUMP JUMPDEST PUSH2 0xA1E DUP2 PUSH2 0xA03 JUMP JUMPDEST DUP3 MSTORE POP POP JUMP JUMPDEST PUSH1 0x0 DUP2 ISZERO ISZERO SWAP1 POP SWAP2 SWAP1 POP JUMP JUMPDEST PUSH2 0xA39 DUP2 PUSH2 0xA24 JUMP JUMPDEST DUP3 MSTORE POP POP JUMP JUMPDEST PUSH1 0x0 PUSH1 0xE0 DUP3 ADD SWAP1 POP DUP2 DUP2 SUB PUSH1 0x0 DUP4 ADD MSTORE PUSH2 0xA59 DUP2 DUP11 PUSH2 0x97A JUMP JUMPDEST SWAP1 POP DUP2 DUP2 SUB PUSH1 0x20 DUP4 ADD MSTORE PUSH2 0xA6D DUP2 DUP10 PUSH2 0x97A JUMP JUMPDEST SWAP1 POP PUSH2 0xA7C PUSH1 0x40 DUP4 ADD DUP9 PUSH2 0x9E5 JUMP JUMPDEST PUSH2 0xA89 PUSH1 0x60 DUP4 ADD DUP8 PUSH2 0x9F4 JUMP JUMPDEST PUSH2 0xA96 PUSH1 0x80 DUP4 ADD DUP7 PUSH2 0x9F4 JUMP JUMPDEST PUSH2 0xAA3 PUSH1 0xA0 DUP4 ADD DUP6 PUSH2 0xA15 JUMP JUMPDEST PUSH2 0xAB0 PUSH1 0xC0 DUP4 ADD DUP5 PUSH2 0xA30 JUMP JUMPDEST SWAP9 SWAP8 POP POP POP POP POP POP POP POP JUMP JUMPDEST PUSH1 0x0 PUSH1 0x20 DUP3 ADD SWAP1 POP PUSH2 0xAD1 PUSH1 0x0 DUP4 ADD DUP5 PUSH2 0xA15 JUMP JUMPDEST SWAP3 SWAP2 POP POP JUMP JUMPDEST PUSH32 0x4E487B7100000000000000000000000000000000000000000000000000000000 PUSH1 0x0 MSTORE PUSH1 0x11 PUSH1 0x4 MSTORE PUSH1 0x24 PUSH1 0x0 REVERT JUMPDEST PUSH1 0x0 PUSH2 0xB11 DUP3 PUSH2 0x846 JUMP JUMPDEST SWAP2 POP PUSH2 0xB1C DUP4 PUSH2 0x846 JUMP JUMPDEST SWAP3 POP DUP3 DUP3 MUL PUSH2 0xB2A DUP2 PUSH2 0x846 JUMP JUMPDEST SWAP2 POP DUP3 DUP3 DIV DUP5 EQ DUP4 ISZERO OR PUSH2 0xB41 JUMPI PUSH2 0xB40 PUSH2 0xAD7 JUMP JUMPDEST JUMPDEST POP SWAP3 SWAP2 POP POP JUMP JUMPDEST PUSH32 0x4E487B7100000000000000000000000000000000000000000000000000000000 PUSH1 0x0 MSTORE PUSH1 0x22 PUSH1 0x4 MSTORE PUSH1 0x24 PUSH1 0x0 REVERT JUMPDEST PUSH1 0x0 PUSH1 0x2 DUP3 DIV SWAP1 POP PUSH1 0x1 DUP3 AND DUP1 PUSH2 0xB8F JUMPI PUSH1 0x7F DUP3 AND SWAP2 POP JUMPDEST PUSH1 0x20 DUP3 LT DUP2 SUB PUSH2 0xBA2 JUMPI PUSH2 0xBA1 PUSH2 0xB48 JUMP JUMPDEST JUMPDEST POP SWAP2 SWAP1 POP JUMP JUMPDEST PUSH1 0x0 DUP2 SWAP1 POP DUP2 PUSH1 0x0 MSTORE PUSH1 0x20 PUSH1 0x0 KECCAK256 SWAP1 POP SWAP2 SWAP1 POP JUMP JUMPDEST PUSH1 0x0 PUSH1 0x20 PUSH1 0x1F DUP4 ADD DIV SWAP1 POP SWAP2 SWAP1 POP JUMP JUMPDEST PUSH1 0x0 DUP3 DUP3 SHL SWAP1 POP SWAP3 SWAP2 POP POP JUMP JUMPDEST PUSH1 0x0 PUSH1 0x8 DUP4 MUL PUSH2 0xC0A PUSH32 0xFFFFFFFFFFFFFFFFFFFFFFFFFFFFFFFFFFFFFFFFFFFFFFFFFFFFFFFFFFFFFFFF DUP3 PUSH2 0xBCD JUMP JUMPDEST PUSH2 0xC14 DUP7 DUP4 PUSH2 0xBCD JUMP JUMPDEST SWAP6 POP DUP1 NOT DUP5 AND SWAP4 POP DUP1 DUP7 AND DUP5 OR SWAP3 POP POP POP SWAP4 SWAP3 POP POP POP JUMP JUMPDEST PUSH1 0x0 DUP2 SWAP1 POP SWAP2 SWAP1 POP JUMP JUMPDEST PUSH1 0x0 PUSH2 0xC51 PUSH2 0xC4C PUSH2 0xC47 DUP5 PUSH2 0x846 JUMP JUMPDEST PUSH2 0xC2C JUMP JUMPDEST PUSH2 0x846 JUMP JUMPDEST SWAP1 POP SWAP2 SWAP1 POP JUMP JUMPDEST PUSH1 0x0 DUP2 SWAP1 POP SWAP2 SWAP1 POP JUMP JUMPDEST PUSH2 0xC6B DUP4 PUSH2 0xC36 JUMP JUMPDEST PUSH2 0xC7F PUSH2 0xC77 DUP3 PUSH2 0xC58 JUMP JUMPDEST DUP5 DUP5 SLOAD PUSH2 0xBDA JUMP JUMPDEST DUP3 SSTORE POP POP POP POP JUMP JUMPDEST PUSH1 0x0 SWAP1 JUMP JUMPDEST PUSH2 0xC94 PUSH2 0xC87 JUMP JUMPDEST PUSH2 0xC9F DUP2 DUP5 DUP5 PUSH2 0xC62 JUMP JUMPDEST POP POP POP JUMP JUMPDEST JUMPDEST DUP2 DUP2 LT ISZERO PUSH2 0xCC3 JUMPI PUSH2 0xCB8 PUSH1 0x0 DUP3 PUSH2 0xC8C JUMP JUMPDEST PUSH1 0x1 DUP2 ADD SWAP1 POP PUSH2 0xCA5 JUMP JUMPDEST POP POP JUMP JUMPDEST PUSH1 0x1F DUP3 GT ISZERO PUSH2 0xD08 JUMPI PUSH2 0xCD9 DUP2 PUSH2 0xBA8 JUMP JUMPDEST PUSH2 0xCE2 DUP5 PUSH2 0xBBD JUMP JUMPDEST DUP2 ADD PUSH1 0x20 DUP6 LT ISZERO PUSH2 0xCF1 JUMPI DUP2 SWAP1 POP JUMPDEST PUSH2 0xD05 PUSH2 0xCFD DUP6 PUSH2 0xBBD JUMP JUMPDEST DUP4 ADD DUP3 PUSH2 0xCA4 JUMP JUMPDEST POP POP JUMPDEST POP POP POP JUMP JUMPDEST PUSH1 0x0 DUP3 DUP3 SHR SWAP1 POP SWAP3 SWAP2 POP POP JUMP JUMPDEST PUSH1 0x0 PUSH2 0xD2B PUSH1 0x0 NOT DUP5 PUSH1 0x8 MUL PUSH2 0xD0D JUMP JUMPDEST NOT DUP1 DUP4 AND SWAP2 POP POP SWAP3 SWAP2 POP POP JUMP JUMPDEST PUSH1 0x0 PUSH2 0xD44 DUP4 DUP4 PUSH2 0xD1A JUMP JUMPDEST SWAP2 POP DUP3 PUSH1 0x2 MUL DUP3 OR SWAP1 POP SWAP3 SWAP2 POP POP JUMP JUMPDEST PUSH2 0xD5D DUP3 PUSH2 0x934 JUMP JUMPDEST PUSH8 0xFFFFFFFFFFFFFFFF DUP2 GT ISZERO PUSH2 0xD76 JUMPI PUSH2 0xD75 PUSH2 0x71B JUMP JUMPDEST JUMPDEST PUSH2 0xD80 DUP3 SLOAD PUSH2 0xB77 JUMP JUMPDEST PUSH2 0xD8B DUP3 DUP3 DUP6 PUSH2 0xCC7 JUMP JUMPDEST PUSH1 0x0 PUSH1 0x20 SWAP1 POP PUSH1 0x1F DUP4 GT PUSH1 0x1 DUP2 EQ PUSH2 0xDBE JUMPI PUSH1 0x0 DUP5 ISZERO PUSH2 0xDAC JUMPI DUP3 DUP8 ADD MLOAD SWAP1 POP JUMPDEST PUSH2 0xDB6 DUP6 DUP3 PUSH2 0xD38 JUMP JUMPDEST DUP7 SSTORE POP PUSH2 0xE1E JUMP JUMPDEST PUSH1 0x1F NOT DUP5 AND PUSH2 0xDCC DUP7 PUSH2 0xBA8 JUMP JUMPDEST PUSH1 0x0 JUMPDEST DUP3 DUP2 LT ISZERO PUSH2 0xDF4 JUMPI DUP5 DUP10 ADD MLOAD DUP3 SSTORE PUSH1 0x1 DUP3 ADD SWAP2 POP PUSH1 0x20 DUP6 ADD SWAP5 POP PUSH1 0x20 DUP2 ADD SWAP1 POP PUSH2 0xDCF JUMP JUMPDEST DUP7 DUP4 LT ISZERO PUSH2 0xE11 JUMPI DUP5 DUP10 ADD MLOAD PUSH2 0xE0D PUSH1 0x1F DUP10 AND DUP3 PUSH2 0xD1A JUMP JUMPDEST DUP4 SSTORE POP JUMPDEST PUSH1 0x1 PUSH1 0x2 DUP9 MUL ADD DUP9 SSTORE POP POP POP JUMPDEST POP POP POP POP POP POP JUMP JUMPDEST PUSH1 0x0 PUSH2 0xE31 DUP3 PUSH2 0x846 JUMP JUMPDEST SWAP2 POP PUSH32 0xFFFFFFFFFFFFFFFFFFFFFFFFFFFFFFFFFFFFFFFFFFFFFFFFFFFFFFFFFFFFFFFF DUP3 SUB PUSH2 0xE63 JUMPI PUSH2 0xE62 PUSH2 0xAD7 JUMP JUMPDEST JUMPDEST PUSH1 0x1 DUP3 ADD SWAP1 POP SWAP2 SWAP1 POP JUMP JUMPDEST PUSH1 0x0 PUSH1 0x60 DUP3 ADD SWAP1 POP DUP2 DUP2 SUB PUSH1 0x0 DUP4 ADD MSTORE PUSH2 0xE88 DUP2 DUP7 PUSH2 0x97A JUMP JUMPDEST SWAP1 POP PUSH2 0xE97 PUSH1 0x20 DUP4 ADD DUP6 PUSH2 0x9F4 JUMP JUMPDEST PUSH2 0xEA4 PUSH1 0x40 DUP4 ADD DUP5 PUSH2 0xA15 JUMP JUMPDEST SWAP5 SWAP4 POP POP POP POP JUMP JUMPDEST PUSH1 0x0 PUSH2 0xEB7 DUP3 PUSH2 0x846 JUMP JUMPDEST SWAP2 POP PUSH2 0xEC2 DUP4 PUSH2 0x846 JUMP JUMPDEST SWAP3 POP DUP3 DUP3 SUB SWAP1 POP DUP2 DUP2 GT ISZERO PUSH2 0xEDA JUMPI PUSH2 0xED9 PUSH2 0xAD7 JUMP JUMPDEST JUMPDEST SWAP3 SWAP2 POP POP JUMP JUMPDEST PUSH32 0x4E487B7100000000000000000000000000000000000000000000000000000000 PUSH1 0x0 MSTORE PUSH1 0x32 PUSH1 0x4 MSTORE PUSH1 0x24 PUSH1 0x0 REVERT JUMPDEST PUSH32 0x706C656173652070617920746865206578616374207072696365000000000000 PUSH1 0x0 DUP3 ADD MSTORE POP JUMP JUMPDEST PUSH1 0x0 PUSH2 0xF45 PUSH1 0x1A DUP4 PUSH2 0x93F JUMP JUMPDEST SWAP2 POP PUSH2 0xF50 DUP3 PUSH2 0xF0F JUMP JUMPDEST PUSH1 0x20 DUP3 ADD SWAP1 POP SWAP2 SWAP1 POP JUMP JUMPDEST PUSH1 0x0 PUSH1 0x20 DUP3 ADD SWAP1 POP DUP2 DUP2 SUB PUSH1 0x0 DUP4 ADD MSTORE PUSH2 0xF74 DUP2 PUSH2 0xF38 JUMP JUMPDEST SWAP1 POP SWAP2 SWAP1 POP JUMP JUMPDEST PUSH32 0x53656C6C65722063616E6E6F7420626520746865206275796572000000000000 PUSH1 0x0 DUP3 ADD MSTORE POP JUMP JUMPDEST PUSH1 0x0 PUSH2 0xFB1 PUSH1 0x1A DUP4 PUSH2 0x93F JUMP JUMPDEST SWAP2 POP PUSH2 0xFBC DUP3 PUSH2 0xF7B JUMP JUMPDEST PUSH1 0x20 DUP3 ADD SWAP1 POP SWAP2 SWAP1 POP JUMP JUMPDEST PUSH1 0x0 PUSH1 0x20 DUP3 ADD SWAP1 POP DUP2 DUP2 SUB PUSH1 0x0 DUP4 ADD MSTORE PUSH2 0xFE0 DUP2 PUSH2 0xFA4 JUMP JUMPDEST SWAP1 POP SWAP2 SWAP1 POP JUMP JUMPDEST PUSH1 0x0 PUSH1 0x40 DUP3 ADD SWAP1 POP PUSH2 0xFFC PUSH1 0x0 DUP4 ADD DUP6 PUSH2 0x9F4 JUMP JUMPDEST PUSH2 0x1009 PUSH1 0x20 DUP4 ADD DUP5 PUSH2 0xA15 JUMP JUMPDEST SWAP4 SWAP3 POP POP POP JUMP INVALID LOG2 PUSH5 0x6970667358 0x22 SLT KECCAK256 SWAP13 PUSH8 0xB43F359CB853536D 0xCA ADDRESS RETURNDATACOPY 0xD5 0xDA CALLDATACOPY DIFFICULTY PUSH5 0xB2BD043E88 0xCB DUP12 DUP12 0x2E 0x26 BALANCE SWAP8 0xEE COINBASE PUSH5 0x736F6C6343 STOP ADDMOD GT STOP CALLER "
				},
				"gasEstimates": {
					"creation": {
						"codeDepositCost": "833200",
						"executionCost": "infinite",
						"totalCost": "infinite"
					},
					"external": {
						"buy(uint256)": "infinite",
						"owner()": "2533",
						"products(uint256)": "infinite",
						"registerProduct(string,string,uint256)": "infinite"
					}
				},
				"methodIdentifiers": {
					"buy(uint256)": "d96a094a",
					"owner()": "8da5cb5b",
					"products(uint256)": "7acc0b20",
					"registerProduct(string,string,uint256)": "3153a15b"
				}
			},
			"storageLayout": {
				"storage": [
					{
						"astId": 3,
						"contract": "novemproject/Ecommerce.sol:Ecommerce",
						"label": "owner",
						"offset": 0,
						"slot": "0",
						"type": "t_address"
					},
					{
						"astId": 32,
						"contract": "novemproject/Ecommerce.sol:Ecommerce",
						"label": "counter",
						"offset": 0,
						"slot": "1",
						"type": "t_uint256"
					},
					{
						"astId": 36,
						"contract": "novemproject/Ecommerce.sol:Ecommerce",
						"label": "products",
						"offset": 0,
						"slot": "2",
						"type": "t_array(t_struct(product)29_storage)dyn_storage"
					}
				],
				"types": {
					"t_address": {
						"encoding": "inplace",
						"label": "address",
						"numberOfBytes": "20"
					},
					"t_address_payable": {
						"encoding": "inplace",
						"label": "address payable",
						"numberOfBytes": "20"
					},
					"t_array(t_struct(product)29_storage)dyn_storage": {
						"base": "t_struct(product)29_storage",
						"encoding": "dynamic_array",
						"label": "struct Ecommerce.product[]",
						"numberOfBytes": "32"
					},
					"t_bool": {
						"encoding": "inplace",
						"label": "bool",
						"numberOfBytes": "1"
					},
					"t_string_storage": {
						"encoding": "bytes",
						"label": "string",
						"numberOfBytes": "32"
					},
					"t_struct(product)29_storage": {
						"encoding": "inplace",
						"label": "struct Ecommerce.product",
						"members": [
							{
								"astId": 16,
								"contract": "novemproject/Ecommerce.sol:Ecommerce",
								"label": "title",
								"offset": 0,
								"slot": "0",
								"type": "t_string_storage"
							},
							{
								"astId": 18,
								"contract": "novemproject/Ecommerce.sol:Ecommerce",
								"label": "desc",
								"offset": 0,
								"slot": "1",
								"type": "t_string_storage"
							},
							{
								"astId": 20,
								"contract": "novemproject/Ecommerce.sol:Ecommerce",
								"label": "seller",
								"offset": 0,
								"slot": "2",
								"type": "t_address_payable"
							},
							{
								"astId": 22,
								"contract": "novemproject/Ecommerce.sol:Ecommerce",
								"label": "productId",
								"offset": 0,
								"slot": "3",
								"type": "t_uint256"
							},
							{
								"astId": 24,
								"contract": "novemproject/Ecommerce.sol:Ecommerce",
								"label": "price",
								"offset": 0,
								"slot": "4",
								"type": "t_uint256"
							},
							{
								"astId": 26,
								"contract": "novemproject/Ecommerce.sol:Ecommerce",
								"label": "buyer",
								"offset": 0,
								"slot": "5",
								"type": "t_address"
							},
							{
								"astId": 28,
								"contract": "novemproject/Ecommerce.sol:Ecommerce",
								"label": "delivered",
								"offset": 20,
								"slot": "5",
								"type": "t_bool"
							}
						],
						"numberOfBytes": "192"
					},
					"t_uint256": {
						"encoding": "inplace",
						"label": "uint256",
						"numberOfBytes": "32"
					}
				}
			},
			"userdoc": {
				"kind": "user",
				"methods": {
					"constructor": {
						"notice": "Contract for maintaining ownership"
					}
				},
				"version": 1
			}
		}
	}
}